:040000000FFDC00030
:0400010000023FFCBE
:0400020000083FFEB5
:04000300000380086E
:0400040000044002B2
:040005000003C0092B
:040006000FFE800168
:040007000FFFFFFBED
:0400080000013FFCB8
:0400090000037FFC75
:04000A000001C00F22
:04000B0000013FF5BC
:04000C000004FFF0FD
:04000D000FFFFFFFE3
:04000E000FFFBFFB26
:04000F000005FFF9F0
:0400100000017FFF6D
:0400110000047FEF79
:0400120000010006E3
:0400130000013FF1B8
:040014000004BFFB2A
:0400150000003FFBAD
:040016000002FFF2F3
:040017000002801053
:04001800000040059F
:0400190000000005DE
:04001A0000037FFD63
:04001B0000037FFD62
:04001C000FFE0001D2
:04001D000000C0051A
:04001E0000007FFE61
:04001F000FFFC00B04
:040020000002C01901
:0400210000050000D6
:040022000000C00F0B
:040023000001400D8B
:040024000003C01401
:040025000005000EC4
:040026000006C00B05
:040027000003C026EC
:0400280000090016B5
:040029000012C039C8
:04002A000021809E93
:04002B000FB77ED2BB
:04002C000FEEFFBC18
:04002D000FF3FFE8E6
:04002E000FFA3FD2B4
:04002F000FFCBFE71C
:040030000FFD7FEC55
:040031000FFBBFF012
:040032000FFF0004B8
:040033000FFFBFEF0D
:040034000FF9BFF70A
:040035000FFDBFF804
:040036000FF9FFEBD4
:040037000FFC7FFB40
:040038000FF97FFC41
:040039000FFC3FED8C
:04003A000FFD7FF047
:04003B000FFE3FF87D
:04003C000000FFF4CD
:04003D000FFE7FF73C
:04003E000FFB7FFC39
:04003F000FFEBFF2FF
:040040000FFEC005EA
:040041000FFCFFFEB3
:040042000FFA3FF87A
:040043000002FFFABE
:040044000FFFFFF1BA
:040045000FFE3FFB70
:040046000000BFE80F
:040047000FFD0003A6
:040048000FFEFFFAAE
:04004900000040096A
:04004A000000800131
:04004B000FFF80041F
:04004C0000047FFE2F
:04004D000FFEC001E1
:04004E000FFBFFEABB
:04004F00000200109B
:04005000000080022A
:040051000FFE40025C
:040052000FFD00029C
:0400530000020005A2
:040054000FFD00019B
:040055000FFDFFFBA1
:040056000FFF7FFF1A
:040057000003000E94
:040058000FFF7FED2A
:0400590000033FF26F
:04005A000FFE7FF026
:04005B0000013FFE63
:04005C000FFBBFF4E3
:04005D000FFFFFFE94
:04005E0000007FFC23
:04005F000FFF40054A
:040060000FFABFF5DF
:040061000FFC800A06
:0400620000033FF860
:0400630000037FF027
:0400640000027FFF18
:0400650000023FFD59
:040066000FFEC002C7
:0400670000007FF81E
:040068000FFF7FFA0D
:040069000002000091
:04006A0000033FF35D
:04006B000003C003CB
:04006C000003C001CC
:04006D000001001777
:04006E000FFF8002FE
:04006F000004800009
:040070000FFFC007B7
:040071000001BFF2D9
:040072000FFCC001BE
:0400730000017FFF0A
:0400740000023FF552
:040075000000BFF1D7
:04007600000140073E
:040077000000FFF492
:040078000FFD7FFBFE
:040079000001FFF68D
:04007A0000003FF94A
:04007B000FFF3FF73D
:04007C0000003FFC45
:04007D0000023FFF3F
:04007E0000043FFC3F
:04007F000FFE8001EF
:0400800000007FF706
:0400810000077FFEF7
:040082000FFE400E1F
:0400830000023FF840
:0400840000013FF444
:0400850000023FF046
:040086000FFDFFF873
:040087000003400032
:0400880000027FF003
:040089000FFEFFFD6A
:04008A000000FFFC77
:04008B000FFB000E59
:04008C0000003FFF32
:04008D00000040042B
:04008E000FFF400F11
:04008F0000028008E3
:0400900000007FFFEE
:040091000001BFF0BB
:0400920000033FF335
:040093000000FFF872
:040094000FFAC0059A
:040095000FFE3FF625
:040096000FFF3FFF1A
:040097000FFE000850
:0400980000013FF92B
:040099000FFD3FF226
:04009A0000047FE9F6
:04009B000000800BD6
:04009C0000008000E0
:04009D000FFC00054F
:04009E000FFE8005CC
:04009F000FFB3FFB19
:0400A0000FFD40030D
:0400A1000001000C4E
:0400A20000057FF9DD
:0400A3000001400414
:0400A4000002000C4A
:0400A5000FFCFFFB52
:0400A6000FFEBFFE8C
:0400A7000FFEBFF990
:0400A80000023FFA19
:0400A9000FFE4016F0
:0400AA0000053FFD11
:0400AB000FFFBFF193
:0400AC000FFCBFEB9B
:0400AD000FFFFFF84A
:0400AE000FFFBFFF82
:0400AF0000013FF617
:0400B0000002FFF457
:0400B10000018007C3
:0400B20000017FF3D7
:0400B3000FFF3FF408
:0400B4000001FFFF49
:0400B5000FFB3FF30B
:0400B6000FFEFFFC3E
:0400B7000FFF7FEFC9
:0400B8000000FFFA4B
:0400B9000FFEC00571
:0400BA000FFE000332
:0400BB000FFFFFFE36
:0400BC000FFF00082A
:0400BD000FFDBFFD77
:0400BE000000BFE59A
:0400BF000FFF8004AB
:0400C0000FFEC00867
:0400C1000FFF00022B
:0400C2000FFEBFF876
:0400C3000001BFE594
:0400C4000001FFF642
:0400C50000017FFCBB
:0400C6000FFDC00B5F
:0400C70000018005AF
:0400C8000FFFFFF433
:0400C9000FFDFFFE2A
:0400CA000002BFF47D
:0400CB000000BFFD75
:0400CC000FFF4006DC
:0400CD000FFF4009D8
:0400CE0000028007A5
:0400CF000FFF4009D6
:0400D0000FFE3FF0F0
:0400D100000100002A
:0400D200000480099D
:0400D3000FFF800893
:0400D40000008007A1
:0400D5000002FFF630
:0400D60000003FF3F4
:0400D7000FFDFFFB1F
:0400D8000FFD800593
:0400D9000FFE4004D2
:0400DA00000300001F
:0400DB000001C00957
:0400DC000003800C91
:0400DD000FFEC0044E
:0400DE000002000913
:0400DF000FFFC00B44
:0400E00000013FFEDE
:0400E1000001000713
:0400E2000001FFFF1B
:0400E3000FFFC00447
:0400E40000017FFE9A
:0400E5000FFEC00446
:0400E6000FFE000009
:0400E70000013FF2E3
:0400E80000037FF999
:0400E9000FFE3FFACD
:0400EA000000000D05
:0400EB00000080078A
:0400EC000000C0064A
:0400ED0000044007C4
:0400EE000FFE0003FE
:0400EF0000013FFCD1
:0400F0000002000208
:0400F1000FFEFFFB04
:0400F2000FFEBFF34B
:0400F3000FFE7FFD80
:0400F4000003000104
:0400F5000005FFFA09
:0400F60000024001C3
:0400F7000000800382
:0400F80000020012F0
:0400F90000000008FB
:0400FA000FFCFFF800
:0400FB000FFE0005EF
:0400FC000FFE4009AA
:0400FD00000280017C
:0400FE000FFDC0032F
:0400FF000002800378
:0401000000003FFFBD
:0401010000014001B8
:040102000FFFBFFE2E
:0401030000003FF6C3
:040104000FFEC00723
:0401050000003FF9BE
:0401060000013FFFB6
:0401070000027FF97A
:04010800000080076C
:040109000002C00030
:04010A0000014009A7
:04010B0000043FF6B7
:04010C000001FFF9F6
:04010D000004FFF9F2
:04010E000FFD800160
:04010F000FFD800A56
:040110000FFD0000DF
:040111000003FFFBED
:040112000FFE400A92
:040113000FFDFFEEEF
:040114000000C00225
:0401150000027FF86D
:0401160000023FF7AD
:040117000FFD3FF3A6
:0401180000024000A1
:040119000001BFF52D
:04011A00000140029E
:04011B0000023FFCA3
:04011C000002BFF628
:04011D000FFDBFFF14
:04011E0000007FFA64
:04011F0000007FED70
:040120000FFFFFFDD1
:0401210000003FFAA1
:040122000FFF7FEF5D
:040123000002800650
:04012400000340078D
:040125000FFE400089
:040126000FFFBFFB0D
:0401270000017FFD57
:040128000002C0020F
:040129000FFC3FFC8C
:04012A000FFF3FFD87
:04012B000000BFFB16
:04012C000002BFF915
:04012D0000003FF798
:04012E000FFBBFF70D
:04012F000FFD7FEF52
:04013000000140008A
:040131000FFF7FF449
:040132000000BFF812
:0401330000017FFD4B
:040134000000BFFA0E
:0401350000023FFE87
:040136000FFF7FFE3A
:040137000002BFFD06
:040138000003000CB4
:040139000FFFC00CE8
:04013A000003FFFCC3
:04013B00000180043B
:04013C000FFD0008AB
:04013D000FFF0009A7
:04013E000FFFC004EB
:04013F000FFF0008A6
:040140000FFEC008E6
:0401410000037FEF49
:0401420000007FF04A
:040143000000C005F3
:040144000FFFFFFBAF
:040145000FFCFFFDAF
:040146000FFD800326
:040147000FFCBFFFEB
:040148000FFFBFFBEB
:0401490000003FFD76
:04014A000FFE7FFE27
:04014B000FFD400262
:04014C000FFFFFFBA7
:04014D000FFEBFF8EA
:04014E0000037FFE2D
:04014F000001C00AE1
:040150000FFBFFFDA5
:040151000FFF400B51
:040152000FFF3FFA62
:040153000003400C59
:040154000FFBFFF9A5
:040155000000BFFFE8
:040156000FFB400556
:04015700000040085C
:040158000003C003DD
:0401590000013FF969
:04015A000FFEFFF89D
:04015B000FFD801202
:04015C000001FFF1AE
:04015D000FFE40034E
:04015E000000FFFF9F
:04015F000004BFF3E6
:040160000FFF00008D
:040161000000800218
:040162000FFF7FF418
:040163000FFF000783
:0401640000047FF61E
:040165000004400151
:040166000001000490
:0401670000033FF85A
:040168000000C005CE
:040169000FFFFFFD88
:04016A000FFE7FEF16
:04016B000FFFFFF192
:04016C000002C00FBE
:04016D000003C005C6
:04016E000FFF40043B
:04016F000FFC3FF54D
:040170000001800307
:0401710000008010FA
:040172000000BFF8D2
:040173000FFE7FFB01
:0401740000003FF553
:04017500000300047F
:040176000001BFF1D4
:040177000FFDC004B4
:040178000FFE3FF542
:040179000002FFF38E
:04017A000002BFEAD6
:04017B000001FFF38D
:04017C0000013FF649
:04017D000FFF7FFBF6
:04017E0000017FF904
:04017F000002FFFE7D
:040180000002FFF783
:0401810000033FF642
:0401820000043FF343
:040183000FFD7FF5F8
:040184000000000275
:040185000FFEFFFE6C
:040186000FFC3FF239
:040187000FFCC006A3
:040188000FFCC003A5
:040189000FFDFFFD6A
:04018A000FFBBFF9AF
:04018B0000023FFD32
:04018C00000140042A
:04018D000FFDFFFE65
:04018E000FFF40031C
:04018F000001FFFE6E
:0401900000017FF4F7
:040191000FFEFFF965
:040192000000C00B9E
:040193000FFF3FF922
:04019400000140091D
:040195000FFF7FF5E4
:040196000FFFC0088F
:040197000001400122
:0401980000027FFBE7
:040199000FFEBFFB9B
:04019A0000007FFCE6
:04019B000FFF3FF41F
:04019C0000003FFD23
:04019D000FFEBFF59D
:04019E0000013FF22B
:04019F000FFC00034E
:0401A0000003C00A8E
:0401A10000033FFF19
:0401A2000FFB40000F
:0401A3000FFDFFFE4F
:0401A4000FFDBFF597
:0401A5000FFE7FECDE
:0401A6000FFF8000C7
:0401A7000FFC000C3D
:0401A8000FFFBFEF97
:0401A9000FFE000A3B
:0401AA000FFEBFFB8A
:0401AB000000000848
:0401AC000000000C43
:0401AD000FFE4008F9
:0401AE000FFF000738
:0401AF000003C00980
:0401B0000000400803
:0401B1000002FFF950
:0401B2000FFE7FFFBE
:0401B3000FFCC0037A
:0401B4000FFEFFFB40
:0401B5000FFC8002B9
:0401B6000001BFF88D
:0401B7000FFE4004F3
:0401B8000000000142
:0401B9000FFFC0096B
:0401BA000003FFF14E
:0401BB000FF87FFDBD
:0401BC00000000023D
:0401BD000001FFF549
:0401BE000FFF4003EC
:0401BF000FFE4004EB
:0401C00000003FF903
:0401C1000000FFFC3F
:0401C2000FFD4006E7
:0401C30000008005B3
:0401C40000007FF4C4
:0401C5000FFEBFFA70
:0401C6000FFD8000A9
:0401C7000FFFBFFA6D
:0401C8000FFF000421
:0401C9000FFD4006E0
:0401CA000FFE7FFBAA
:0401CB000000C0056B
:0401CC0000017FF4BB
:0401CD000002FFF637
:0401CE000004000029
:0401CF000000FFFC31
:0401D0000000C00764
:0401D10000013FF8F2
:0401D2000FFFBFFA62
:0401D3000FFF3FF6E5
:0401D4000FFE4012C8
:0401D50000013FF8EE
:0401D60000007FEEB8
:0401D7000003000B16
:0401D8000FFFC00352
:0401D9000FFFBFF263
:0401DA000FFEBFFC59
:0401DB000FFFFFFF14
:0401DC000FFEFFFD16
:0401DD000004FFEF2C
:0401DE000004000613
:0401DF000FFF800886
:0401E0000FFF800A83
:0401E10000033FF8E0
:0401E2000FFBC0004F
:0401E3000FFEFFF814
:0401E4000002000B0A
:0401E50000007FFF98
:0401E6000001C00054
:0401E70000017FFC98
:0401E80000003FF9DB
:0401E9000001FFF919
:0401EA000FFD800382
:0401EB000FFE80067D
:0401EC000002000EFF
:0401ED000FFFFFFC05
:0401EE000FFB80067D
:0401EF0000014000CB
:0401F0000FF97FF78D
:0401F1000FFDBFF847
:0401F2000FFEBFEA53
:0401F3000FFB000AF4
:0401F4000FFFC00A2F
:0401F5000000000600
:0401F600000180097B
:0401F70000024000C2
:0401F80000034002BE
:0401F9000FFFFFE114
:0401FA000FFEFFF8FD
:0401FB000FFD3FFDB8
:0401FC00000180037B
:0401FD000FFFBFF73A
:0401FE000FFE0002EE
:0401FF000FFFFFF4FB
:0402000000024000B8
:040201000FFFC00B20
:040202000FFE3FFDAF
:040203000FFF800861
:040204000001BFFC3A
:040205000FFD0002E7
:040206000FFEC00720
:040207000FFFC01E07
:0402080000037FFD73
:0402090000027FFF71
:04020A000001BFF63A
:04020B0000003FF9B7
:04020C000FFFFFF5EC
:04020D000FFB3FF5AF
:04020E000FFE80154A
:04020F000FFD800758
:040210000FF940089A
:0402110000017FFF6A
:040212000FFBBFF926
:040213000FFFC00316
:0402140000023FF1B4
:040215000FFEBFF920
:040216000FFDBFFC1D
:040217000001C0061C
:0402180000000006DC
:04021900000140039D
:04021A000001FFFFE1
:04021B00000040009F
:04021C0000023FF4A9
:04021D000FFEC00709
:04021E000FFBFFFFD4
:04021F0000030007D1
:040220000FFFBFF518
:040221000FFFBFF715
:0402220000043FF99C
:040223000004C01003
:040224000FFEC00207
:040225000FFFC00007
:040226000FFE800344
:040227000FFF800D38
:040228000FFFFFFCC9
:0402290000033FF49B
:04022A00000040117F
:04022B0000010007C7
:04022C000FFE7FED55
:04022D000FFF0009B6
:04022E000FFF800539
:04022F0000010007C3
:040230000000FFF8D3
:040231000000C00306
:0402320000043FFF86
:040233000002C009FC
:040234000001400B7A
:040235000000FFFACC
:040236000FFE400473
:040237000FFD7FF93F
:040238000FFF3FFB7A
:040239000FFF80052E
:04023A000FFDBFFFF6
:04023B000FFE80052D
:04023C000000400B73
:04023D000000BFFA04
:04023E000FFD7FF938
:04023F000000C003F8
:0402400000000006B4
:040241000FFE7FFB32
:040242000FFF7FFC2F
:040243000001C00AEC
:0402440000003FFD7A
:040245000FF840026C
:040246000003C00EE3
:040247000FFFFFF6B0
:0402480000003FFE75
:040249000FFE7FFB2A
:04024A000001800728
:04024B000FFCBFFDE8
:04024C000FFEC004DD
:04024D000FFCFFFCA7
:04024E000FFE40005F
:04024F000002C006E3
:0402500000007FF734
:040251000003FFF6B1
:040252000FFF3FF863
:040253000FFE7FF724
:0402540000003FF374
:0402550000003FF76F
:040256000FFE800413
:040257000FFE3FF562
:040258000FFF801004
:040259000FFC3FF364
:04025A000FFFBFFFD4
:04025B000FFE40133F
:04025C000FFD800A08
:04025D000FFDC001D0
:04025E000FFB7FFF14
:04025F000003000098
:040260000003FFF5A3
:040261000FFC3FFC53
:040262000001000D8A
:040263000FFE800A00
:040264000000000294
:040265000FFF000B7C
:040266000000400351
:040267000FFE800402
:04026800000240044C
:0402690000017FFE13
:04026A000FFFFFF78C
:04026B000FFF400A37
:04026C0000017FF618
:04026D000FFF000679
:04026E000000FFF499
:04026F000FFEC006B8
:040270000001400B3E
:040271000001C001C7
:040272000FFF7FFCFF
:040273000FFDC001BA
:0402740000017FFB0B
:040275000002000281
:040276000FFB8006F4
:040277000FFDC002B5
:040278000FFCFFFC7C
:040279000FFCFFF97E
:04027A000FFC000D68
:04027B000FFEC001B1
:04027C0000003FFD42
:04027D000FFD400A27
:04027E000004000C6C
:04027F00000300096F
:040280000002C008B0
:040281000002C001B6
:040282000001400631
:040283000FFF400425
:04028400000100096C
:040285000001C00CA8
:0402860000028015DD
:040287000002C00CA5
:040288000FFE000A5B
:040289000FFDFFFB6B
:04028A000001800EE1
:04028B0000033FFB32
:04028C000000000A64
:04028D000FFE40041C
:04028E0000008007E5
:04028F000000BFEFBD
:040290000001BFFCAE
:040291000FFC000A54
:040292000FFF7FFBE0
:040293000003FFFA6B
:040294000002FFF075
:040295000FFFC00E89
:040296000FFE401007
:040297000FFFC00293
:040298000000FFFA69
:040299000003000757
:04029A0000013FFB25
:04029B0000047FFEDE
:04029C000004400911
:04029D000FFF3FF818
:04029E000FFF400B03
:04029F000000BFFD9F
:0402A0000FFF3FFF0E
:0402A1000004800CC9
:0402A2000000C00098
:0402A3000FFE7FFCCF
:0402A4000001C00E87
:0402A5000FFDBFED9D
:0402A6000FFEC00780
:0402A700000100064C
:0402A8000003FFFC54
:0402A90000007FF7DB
:0402AA000FFB7FFACD
:0402AB0000008000CF
:0402AC000FFBC0067E
:0402AD0000037FF3D8
:0402AE000FFF000539
:0402AF000FFF7FF4CA
:0402B0000FFBC0027E
:0402B1000001FFF554
:0402B2000003400104
:0402B3000FFE8007B3
:0402B4000FFFC00474
:0402B5000FFD7FFDBD
:0402B6000FFE4001F6
:0402B7000000000241
:0402B8000FFF8004B0
:0402B9000FFC8000B6
:0402BA000FFDBFFC79
:0402BB000FFCC00272
:0402BC000FFFC0046C
:0402BD000000FFFA44
:0402BE000000400FED
:0402BF0000034010E8
:0402C0000FFEFFF737
:0402C1000FFF3FF7F5
:0402C2000FFFFFFB30
:0402C3000FFF3FF6F4
:0402C4000FFD3FF7F4
:0402C5000001BFFB7A
:0402C6000003C0036E
:0402C7000FFFFFF333
:0402C80000033FF3FD
:0402C90000028002AD
:0402CA000FFF4001E1
:0402CB00000200012C
:0402CC0000008005A9
:0402CD0000014002EA
:0402CE0000008007A5
:0402CF000FFF400BD2
:0402D00000017FFFAB
:0402D1000FFD4010CD
:0402D2000FFB800896
:0402D300000000081F
:0402D400000280069E
:0402D50000008004A1
:0402D6000FFF000214
:0402D7000FFC000315
:0402D8000002FFFD24
:0402D90000014002DE
:0402DA000FFF80048E
:0402DB000FFE7FFF94
:0402DC0000037FF8A4
:0402DD000002BFF963
:0402DE000FFF4010BE
:0402DF000000000516
:0402E0000FFFC0024A
:0402E10000004012C7
:0402E20000004005D3
:0402E3000FFD80008B
:0402E400000280098B
:0402E5000002000310
:0402E60000017FFD97
:0402E7000001800A88
:0402E80000027FFF92
:0402E9000FFD000CF9
:0402EA000002000806
:0402EB0000024007C6
:0402EC000000FFFD12
:0402ED000FFDC01130
:0402EE000FFE7FF58B
:0402EF000003C00444
:0402F0000FFD3FFFC0
:0402F1000FFDBFF549
:0402F2000FFDBFFE3F
:0402F3000004C0063D
:0402F4000001C0063F
:0402F50000040009F8
:0402F60000017FF68E
:0402F7000002FFFF03
:0402F8000000BFF84B
:0402F90000024006B9
:0402FA0000010000FF
:0402FB0000000006F9
:0402FC000FFEFFF8FA
:0402FD0000000009F4
:0402FE000FFF80016D
:0402FF0000017FFE7D
:0403000000000000F9
:040301000002BFFC3B
:040302000FFDFFFCF0
:040303000002BFFE37
:040304000FFE7FF673
:040305000FFE3FFAAE
:040306000FFCC00721
:0403070000003FF7BC
:0403080000023FEDC3
:040309000000BFFC35
:04030A0000027FFE70
:04030B000005C00524
:04030C0000033FFEAD
:04030D000FFE40029D
:04030E000FFE800C52
:04030F000FFEC00419
:0403100000023FFDAB
:0403110000010003E4
:040312000FFE3FFC9F
:0403130000047FF86B
:040314000000FFF9ED
:040315000000BFF82D
:0403160000003FF2B2
:040317000FFE0005D0
:040318000003400698
:040319000001000DD2
:04031A000FFE3FFF94
:04031B000FFEFFFBD7
:04031C00000140019B
:04031D000FFFFFFBD4
:04031E000001C0001A
:04031F0000013FF8A2
:0403200000010001D7
:040321000FFFFFF4D7
:0403220000023FF6A0
:040323000FFEFFFBCF
:040324000003BFF320
:040325000001FFF6DE
:0403260000033FFF92
:040327000FFE7FFB4B
:040328000FFDBFFA0C
:040329000FFDC00400
:04032A000000000CC3
:04032B000002C00903
:04032C000000BFF816
:04032D000FFFBFF708
:04032E000004BFF612
:04032F0000013FFF8B
:040330000FFE000FAD
:040331000FFF7FF645
:040332000002BFF80E
:040333000FFF7FF643
:040334000FFF7FF93F
:040335000000800242
:040336000002800B36
:040337000FFDC001F5
:040338000FFFC00BE8
:040339000001BFFA06
:04033A000FFDFFF4C0
:04033B00000140037A
:04033C000001C009F3
:04033D000001801A21
:04033E000FFE800727
:04033F000FFF3FFD70
:040340000FFEFFF7B6
:040341000FFFBFFBF0
:040342000000801A1D
:040343000FFD800228
:040344000FFF3FF771
:040345000FFFC001E5
:040346000FFE3FFC6B
:040347000FFEFFFAAC
:040348000000C005EC
:040349000FFF401052
:04034A000FFEC003DF
:04034B000FFB000C98
:04034C000001C000EC
:04034D000FFF000B93
:04034E000001400C5E
:04034F000001BFF8F2
:040350000002C00BDC
:04035100000100099E
:040352000FFF800019
:040353000FFFC007D1
:040354000FFC801406
:040355000FFF800E08
:04035600000500029C
:040357000FFE7FE92D
:04035800000200059A
:040359000FFE80060D
:04035A000FFE800111
:04035B000FFCC004CF
:04035C0000023FF369
:04035D0000017FFB21
:04035E000005400650
:04035F0000013FF367
:040360000FFD7FFC12
:040361000FFB00048A
:040362000FFEBFFAD1
:040363000FFC3FFA52
:040364000000BFFFD7
:040365000000BFF4E1
:040366000004401639
:040367000FFD000D79
:04036800000100068A
:040369000FFE3FF74D
:04036A000FFF000081
:04036B000FFE000978
:04036C000FFAFFFA8B
:04036D000000C007C5
:04036E000003000C7C
:04036F000001800FFA
:040370000000400049
:040371000002BFF7D0
:040372000FFF7FF00A
:0403730000007FFB0C
:040374000000000085
:040375000FFB3FF14A
:040376000000C003C0
:040377000FFEC002B3
:040378000002400F30
:0403790000037FFFFF
:04037A000FFDC007AC
:04037B000002000F6D
:04037C000001000B71
:04037D000002000773
:04037E000FFE7FF1FE
:04037F000007400132
:040380000000400831
:040381000FFEBFFEAE
:040382000004000370
:040383000002000074
:040384000000000372
:040385000FFF00085E
:04038600000000066D
:040387000001C009A8
:040388000FFD400421
:040389000000C00BA5
:04038A0000017FF8F7
:04038B000000800EE0
:04038C000002000A61
:04038D00000140002B
:04038E000FFCFFFE63
:04038F000001800DDC
:040390000FFFFFF864
:040391000004BFFFA6
:040392000FFFBFFD9D
:0403930000013FE83E
:040394000003FFFE65
:040395000003FFFC66
:040396000003000C54
:0403970000023FFF22
:040398000FFF40050E
:040399000000400719
:04039A000FFEFFFD56
:04039B00000200025A
:04039C00000240001B
:04039D000003400F0A
:04039E000003000751
:04039F000FFCBFF59B
:0403A0000FFA800AC6
:0403A1000FFF7FFAD1
:0403A2000000400314
:0403A3000FFFC00187
:0403A4000FFB800BC0
:0403A5000001000152
:0403A6000FFE400FF7
:0403A7000003000D42
:0403A8000FFF4012F1
:0403A90000033FF11D
:0403AA000FFF400001
:0403AB000FFDC0047E
:0403AC000FFD3FFE04
:0403AD0000023FFA11
:0403AE000FFD3FFD03
:0403AF000FFE7FFDC1
:0403B0000000BFFD8D
:0403B10000023FEF18
:0403B2000FFBC01568
:0403B3000FFEFFFE3C
:0403B4000004400100
:0403B5000FFFBFFB7C
:0403B6000000BFFE86
:0403B70000007FF6CD
:0403B8000FFEC0056F
:0403B9000FFD3FFCF9
:0403BA0000008017A8
:0403BB000FFE00042D
:0403BC000FFFC00E61
:0403BD000002C00575
:0403BE000FFA00072B
:0403BF000FFCC0016E
:0403C0000FFEFFFA33
:0403C1000FFE800D9E
:0403C2000FFB4003EA
:0403C3000FFE4008E1
:0403C4000000C00B6A
:0403C5000FFE000720
:0403C6000FFD400FD8
:0403C7000FFC001215
:0403C8000FF94003E6
:0403C9000FFC4004E1
:0403CA000FF9C01453
:0403CB000FFD80079B
:0403CC000FF980089D
:0403CD000FFF80108E
:0403CE000FFF3FFBE3
:0403CF000FFB800F91
:0403D0000FFD4013CA
:0403D1000FFC801885
:0403D2000FFA002DF1
:0403D3000FF3C0174D
:0403D4000FEEC04325
:0403D5000FB7412DF0
:0403D6000021BF61E2
:0403D7000012FFC64B
:0403D80000093FE9F0
:0403D9000003FFD945
:0403DA000006FFF426
:0403DB0000053FF1E9
:0403DC000003FFEB30
:0403DD0000017FF2AA
:0403DE000000FFF02C
:0403DF0000053FFFD7
:0403E0000002FFE632
:0403E1000FFFFFF417
:0403E20000004001D6
:0403E3000000FFFA1D
:0403E4000FFE3FFECB
:0403E50000034002CF
:0403E60000034002CE
:0403E70000003FFAD9
:0403E80000007FFA98
:0403E9000002BFEF60
:0403EA000002C00D40
:0403EB00000000040A
:0403EC000004800485
:0403ED000001000EFD
:0403EE0000013FF9D2
:0403EF0000044010B6
:0403F00000014000C8
:0403F1000005C0063D
:0403F2000FFF800475
:0403F3000FFFC00038
:0403F4000004C00F32
:0403F5000001000AF9
:0403F6000001FFF013
:0403F70000034003BC
:0403F80000010003FD
:0403F9000FFFC0042E
:0403FA000FFEBFFE35
:0403FB000003FFF606
:0403FC0000047FFD7D
:0403FD000003BFF743
:0403FE0000080001F2
:0403FF0000020003F5
:00000001FF
