:040000000004C00038
:0400010000047FF484
:040002000FFEFFFAF4
:040003000002801364
:040004000002C00531
:0400050000013FF7C0
:0400060000017FFE78
:040007000FFE0011D7
:040008000004800C64
:040009000FFF7FEE78
:04000A0000013FF6BC
:04000B000FFC7FF96E
:04000C0000013FFEB2
:04000D000FFC7FF76E
:04000E000FFC7FFD67
:04000F0000043FF1B9
:040010000FFE40049B
:040011000002800861
:0400120000004006A4
:040013000FFDC00E0F
:040014000FFFBFFA21
:0400150000027FF274
:040016000004BFF82B
:040017000FFD3FFAA0
:040018000FFB0004D6
:040019000FFBFFF2E8
:04001A0000043FFAA5
:04001B000FFE80084C
:04001C0000017FEA76
:04001D0000013FFDA2
:04001E000FFD800949
:04001F000FFB800350
:040020000FFE7FE16F
:040021000FFFBFF618
:040022000000BFE932
:040023000FFD7FF658
:040024000FFF3FE2A9
:040025000FFCBFEC21
:040026000FFBBFE32A
:040027000FFEFFDFEA
:040028000FFF3FD6B1
:040029000FF9FFB715
:04002A000FF13F3162
:04002B000017819B9E
:04002C000006C061A9
:04002D000002803C11
:04002E000003002AA1
:04002F000002401D6E
:040030000FFF40146A
:040031000FFCC019E7
:040032000001001EAB
:040033000003800D39
:040034000FFF0011A9
:040035000000401077
:040036000002401173
:040037000FFAC00DEF
:040038000FFF800F27
:040039000FFF400D68
:04003A000000000AB8
:04003B000FFCC007EF
:04003C000002800A34
:04003D000FFDC007EC
:04003E000000C006F8
:04003F000FFF001996
:040040000002800D2D
:040041000FFC7FFE33
:040042000FFFC010DC
:040043000001800137
:040044000003801025
:040045000000C00AED
:04004600000240066E
:040047000000C010E5
:040048000FFEC016D1
:040049000003C013DD
:04004A000000FFF2C1
:04004B000000C009E8
:04004C000002400866
:04004D000FFFBFFFE3
:04004E000002FFF5B8
:04004F000FFC40055D
:040050000005C006E1
:040051000FFE000D91
:040052000FFF80011B
:040053000FFEC007D5
:0400540000003FF772
:040055000FFFFFFF9B
:040056000005C00AD7
:040057000FFF7FFC1C
:040058000FFF401145
:0400590000000002A1
:04005A000FFFFFF99C
:04005B00000100039D
:04005C000FFDFFF69F
:04005D000FFD400251
:04005E0000007FF728
:04005F0000013FF964
:040060000FFEFFF59B
:040061000FFD7FF917
:040062000000C004D6
:040063000FFF800B00
:0400640000023FFF58
:040065000FFF401237
:040066000002BFFFD6
:040067000FFE400444
:040068000FFD800503
:040069000FFCC00DBB
:04006A000FFFC007BD
:04006B000FFEC001C3
:04006C000FFF7FFD06
:04006D00000180010D
:04006E00000140014C
:04006F000002FFFD8F
:040070000FFFFFFA85
:040071000001401337
:040072000FFEC01DA0
:040073000FFAFFF988
:040074000FFD7FFEFF
:040075000004BFF6CE
:040076000FFDFFFE7D
:040077000FFB400C2F
:040078000FFFBFFEB9
:040079000FFA00106A
:04007A000FFF8015DF
:04007B000FFCFFF780
:04007C0000023FFC43
:04007D000FFC8001F3
:04007E000004400B2F
:04007F000FFE000E62
:040080000001000675
:040081000000000C6F
:0400820000027FF504
:040083000FFD400825
:040084000004BFF8BD
:040085000004C00BA8
:040086000000FFFC7B
:040087000FFDFFF179
:040088000FFF7FF5F2
:040089000FFE800DD9
:04008A000FFFC01193
:04008B000FFE800BD9
:04008C000002BFF0BF
:04008D00000100105E
:04008E000FFEC0039E
:04008F00000000105D
:040090000FFFBFFAA5
:040091000FFEFFF16E
:0400920000003FFA31
:040093000FFFBFF5A7
:040094000001C001A6
:0400950000027FF8EE
:040096000001FFF96D
:040097000FFB000556
:0400980000047FF6EB
:040099000000FFFD67
:04009A0000007FF1F2
:04009B000FFFBFFF95
:04009C000FFFBFF59E
:04009D000000BFF3AD
:04009E0000013FEF2F
:04009F00000000104D
:0400A000000040011B
:0400A1000FFDBFFE92
:0400A20000057FFFD7
:0400A3000FFC7FE5EA
:0400A4000004000351
:0400A5000001400016
:0400A6000FFF7FF7D2
:0400A7000000400114
:0400A8000000FFFA5B
:0400A9000003000947
:0400AA000FFD8007BF
:0400AB000FFF4007FC
:0400AC000005000B40
:0400AD00000100044A
:0400AE000000FFF35C
:0400AF0000008010BD
:0400B0000000FFFE4F
:0400B1000000C01378
:0400B2000FFC3FE818
:0400B3000FFBC0057A
:0400B4000FFD000735
:0400B5000000000542
:0400B600000000073F
:0400B7000FFEC01365
:0400B8000FFF8008AE
:0400B9000FFFFFFD39
:0400BA00000300013E
:0400BB000FFFFFFC38
:0400BC000FFF7FFBB8
:0400BD000FFCFFF93C
:0400BE000FFE7FFCB6
:0400BF0000003FF30B
:0400C0000FFE7FF1BF
:0400C1000FFE800AA4
:0400C2000FFB8002AE
:0400C3000FFE000428
:0400C4000FFE4008E3
:0400C5000001800BAB
:0400C6000001BFFA7C
:0400C70000007FF5C1
:0400C800000400052B
:0400C90000014000F2
:0400CA0000034003EC
:0400CB000FFFC0095A
:0400CC000FFAC00364
:0400CD000FFF3FFDE5
:0400CE000FFAC00164
:0400CF000FFD3FF1F1
:0400D00000044006E2
:0400D1000FFD7FFCA4
:0400D2000FFD7FEFB0
:0400D3000FFE800E8E
:0400D4000FFF3FFEDD
:0400D5000004C00261
:0400D600000000091D
:0400D70000003FF8EE
:0400D8000FFF7FFC9B
:0400D900000180049E
:0400DA000FFF7FEEA7
:0400DB000FFFC00E45
:0400DC0000023FF0EF
:0400DD000FFFFFFC16
:0400DE000FFF000709
:0400DF000FFE80038D
:0400E0000000000418
:0400E1000000BFFE5E
:0400E20000007FF4A7
:0400E3000FFFC00843
:0400E4000FFF7FFC8F
:0400E5000FFF800485
:0400E6000FFF3FFDCC
:0400E7000FFF3FFBCD
:0400E800000200070B
:0400E90000004004CF
:0400EA000001FFE929
:0400EB000FFF000300
:0400EC000FFF3FFBC8
:0400ED000FFBBFFA4C
:0400EE0000023FFECF
:0400EF000FFDC0063B
:0400F0000FFCC0063B
:0400F10000003FF5D7
:0400F20000007FF596
:0400F3000FFA0007F9
:0400F4000001C01235
:0400F5000FFBBFF846
:0400F600000080077F
:0400F7000FFE4008B0
:0400F8000FFCFFFBFF
:0400F9000FFDBFFD3B
:0400FA000FFE0007EE
:0400FB0000017FF889
:0400FC000FFE3FFCB8
:0400FD000FFE80046E
:0400FE000FFDC00131
:0400FF000FFF4002AD
:040100000FFD0004EB
:040101000FFF7FFC71
:0401020000013FFFBA
:040103000FFF800961
:0401040000013FFDBA
:040105000FFC7FFE6E
:040106000FFFC01314
:040107000000400BA9
:0401080000044002AD
:040109000FFFC00D17
:04010A000000BFFF33
:04010B000000BFFA37
:04010C0000007FFE72
:04010D000FFD400D95
:04010E0000024000AB
:04010F0000024007A3
:040110000FFF3FF2AC
:040111000000BFF932
:040112000FFDC0100D
:040113000000401098
:040114000FFFFFFBDF
:0401150000020008DC
:0401160000014002A2
:040117000FFFC00115
:040118000FFE400393
:040119000FFD3FFD9A
:04011A000FFF3FFD97
:04011B000FFC0002D3
:04011C000FFC0006CE
:04011D000FFF3FFF92
:04011E00000140029A
:04011F000001FFF9E3
:040120000FFE7FFB54
:0401210000003FF6A5
:0401220000003FF3A7
:040123000000FFFADF
:040124000FFEBFFF0C
:0401250000043FFD96
:040126000FFC800644
:040127000FFA000CBF
:0401280000000009CA
:04012900000180074A
:04012A0000003FFF93
:04012B000FFE000FB4
:04012C000FFD40057E
:04012D000FFFBFF70A
:04012E0000020006C5
:04012F000FFB400979
:040130000000BFFD0F
:040131000FFF400478
:040132000FFEBFFFFE
:040133000FFC800538
:040134000FFEC001F9
:040135000FFC0003B8
:04013600000080093C
:040137000FFC800930
:040138000FFF40185D
:040139000000400A78
:04013A0000000007BA
:04013B000FFDFFF8BD
:04013C0000013FF887
:04013D000FFE400E63
:04013E000FFDFFF5BD
:04013F0000017FF349
:040140000001BFFFFC
:040141000000BFF506
:040142000001C008F0
:040143000FFD7FF835
:040144000FFCBFFBF2
:040145000FFFFFF8B1
:040146000000FFFCBA
:040147000FFD800127
:040148000002FFEDC5
:040149000000C005ED
:04014A0000007FFA38
:04014B000FFCC010D5
:04014C0000010003AB
:04014D000002400E5E
:04014E000000C003EA
:04014F000FFE00059A
:040150000FFDC005DA
:040151000001800920
:040152000FFF000E8D
:040153000002BFFAED
:040154000FFE7FFA21
:0401550000047FFF24
:040156000FFF401344
:040157000FFC800316
:040158000FFFFFF89E
:040159000FFFFFF99C
:04015A000FFE400054
:04015B0000003FFB66
:04015C000FFD40054E
:04015D000FFD400151
:04015E00000040015C
:04015F000003800811
:0401600000027FF921
:040161000000BFFFDC
:040162000001BFF7E2
:040163000FFCBFF2DC
:040164000003BFFDD8
:040165000FFE400346
:040166000FFCC007C3
:04016700000200157D
:040168000001FFF99A
:040169000FFEBFFCCA
:04016A000FFF7FF60E
:04016B000FFB3FFF48
:04016C000FFC40083C
:04016D000FFFFFF68B
:04016E000FFD3FFB47
:04016F000FFDBFEFD2
:040170000FFCFFF190
:040171000000000189
:040172000FFE7FFFFE
:040173000FFFBFF7C4
:040174000FFD3FFF3D
:040175000FFDC006B4
:040176000FFFBFF2C6
:040177000FFFFFFF78
:040178000FFF3FFF37
:040179000FFDC008AE
:04017A000FFEFFFC79
:04017B000FFA8003F4
:04017C000FFDBFEACA
:04017D0000008001FD
:04017E000FFFFFF878
:04017F000FFCBFF9B9
:0401800000018000FA
:040181000FFEBFF3BB
:0401820000018005F3
:040183000FFEFFE983
:040184000003BFFABB
:040185000FFC8008E3
:0401860000008007EE
:040187000FFF000264
:0401880000008001F2
:040189000FFF8008DC
:04018A0000013FFB36
:04018B0000018010DF
:04018C000FFE8010D2
:04018D000FFD3FFD26
:04018E000FFCBFF4AF
:04018F000FFE40001F
:040190000FFE000955
:040191000FFE000C51
:040192000FFF3FFF1D
:040193000001FFFA6E
:040194000FFBBFFF9F
:04019500000240160E
:040196000000C0069F
:040197000FFDFFFB5E
:040198000003C0019F
:040199000FFEFFFD59
:04019A000FFFFFFF55
:04019B000FFE8001D2
:04019C000FFF401001
:04019D0000007FFFE0
:04019E00000000005D
:04019F000FFCFFF260
:0401A0000FFF00014C
:0401A1000FFD3FF916
:0401A2000FFF400DFE
:0401A3000FFF3FFB10
:0401A4000FFF400108
:0401A5000001400312
:0401A60000007FF0E6
:0401A7000000401301
:0401A8000FFF001035
:0401A9000002800FC1
:0401AA000004400607
:0401AB000002C00985
:0401AC000FFF4006FB
:0401AD000FFB4010F4
:0401AE000FFE3FFA07
:0401AF000FFD000838
:0401B0000FFEBFFE81
:0401B10000007FFECD
:0401B2000000C00881
:0401B3000000800ABE
:0401B4000FFE3FF506
:0401B5000FFF4008F0
:0401B6000FFD4011E8
:0401B7000FFCC00C6D
:0401B8000005000539
:0401B9000FFD8001B5
:0401BA000000FFFE44
:0401BB000001400FF0
:0401BC000FFEBFF67D
:0401BD0000004003FB
:0401BE0000024004F7
:0401BF0000024003F7
:0401C0000002FFF743
:0401C1000000BFF784
:0401C2000FFD400FDE
:0401C30000033FF7FF
:0401C4000FFFC00663
:0401C5000FFDC00664
:0401C6000002C00271
:0401C7000FFE00081F
:0401C80000007FF2C2
:0401C9000FFF7FFEA7
:0401CA000FFE800A9A
:0401CB0000018002AD
:0401CC000002BFFC72
:0401CD000000BFF976
:0401CE000FFF7FFBA5
:0401CF0000003FF9F4
:0401D0000000400BE0
:0401D1000FFE00031A
:0401D2000FFF7FF9A3
:0401D3000FFF3FFFDC
:0401D4000000C00166
:0401D50000027FFCA9
:0401D6000002C00E55
:0401D7000FFDC00058
:0401D8000000FFF92B
:0401D9000004C00856
:0401DA000FFFC00350
:0401DB000FFD800292
:0401DC000FFFBFF161
:0401DD0000007FF7A8
:0401DE000000800A93
:0401DF000FFE7FFA96
:0401E0000FFCC00B45
:0401E1000FFF400DBF
:0401E2000FFE3FFDD0
:0401E30000037FFF97
:0401E4000000000017
:0401E5000FFFBFF653
:0401E60000007FFD99
:0401E7000FFDBFFA4F
:0401E8000FFCC00444
:0401E9000001C0024F
:0401EA000000C0034E
:0401EB000002C00F3F
:0401EC000FFF7FFA88
:0401ED000FFD800A78
:0401EE000000C0034A
:0401EF000FFCFFF50D
:0401F0000FFEFFF807
:0401F1000FFF3FFBC2
:0401F2000FFF3FF7C5
:0401F3000004FFF70E
:0401F40000017FF790
:0401F5000003BFFC48
:0401F6000FFF400AAD
:0401F7000FFD4007B1
:0401F8000FFDC00037
:0401F9000FFFC00A2A
:0401FA000FFF800073
:0401FB000FFF80066C
:0401FC000FFE3FF7BC
:0401FD000FFE800968
:0401FE000FFF800867
:0401FF000FFF800866
:040200000002C00038
:040201000FFFBFF735
:040202000FFFBFF734
:040203000FFEBFF635
:040204000FFE0008E1
:040205000FFFBFF92F
:040206000FFFBFFF28
:040207000FFFFFF5F1
:040208000FFDFFFFE8
:040209000FFD7FF86E
:04020A000FFF7FF56E
:04020B000003800369
:04020C0000014008A5
:04020D000004C00821
:04020E000FFF0008D6
:04020F000FFF0004D9
:040210000FFEC00716
:040211000FFCC00A14
:040212000000FFFCED
:040213000FFDBFF527
:040214000FFF400593
:040215000002FFF0F4
:040216000000FFFCE9
:040217000001FFFDE6
:040218000FFCFFFBDD
:040219000FFD800550
:04021A00000040029E
:04021B000FFF800948
:04021C0000003FFFA0
:04021D00000340009A
:04021E000FFE0002CD
:04021F000FFF7FF25C
:040220000FFCFFF4DC
:040221000FFE400587
:040222000000BFF524
:04022300000040088F
:040224000FFF800E3A
:040225000FFDBFFD0D
:040226000FFFFFFCCB
:040227000004FFF7D9
:040228000000C0060C
:040229000FFDFFFFC7
:04022A000002FFF1DE
:04022B00000240038A
:04022C000000FFFED1
:04022D000FFF0000BF
:04022E000FFF400678
:04022F000FFE3FFC83
:0402300000007FF457
:0402310000000006C3
:040232000FFF400476
:040233000000800641
:040234000002800341
:040235000001BFFD08
:040236000FFEBFF503
:040237000FFF400174
:040238000000400D75
:040239000FFE3FF77E
:04023A000002FFFDC2
:04023B000FFDFFF9BB
:04023C000FFFFFF9B8
:04023D0000030008B2
:04023E000FFD7FF041
:04023F000000800833
:040240000002C008F0
:0402410000027FFC3C
:0402420000027FFB3C
:0402430000007FFC3C
:040244000FFE800920
:0402450000017FF045
:040246000000C001F3
:040247000FFDBFFEEA
:0402480000053FFA74
:040249000FFCFFF3B4
:04024A000FFD7FEE37
:04024B000FFF7FF72B
:04024C000FFE000A97
:04024D000000BFF5F9
:04024E000000FFF7B6
:04024F00000040016A
:040250000FFE80011C
:040251000FFD3FF767
:040252000FFE000596
:040253000FFB7FEF2F
:040254000FFF7FF920
:040255000002FFF6AE
:0402560000047FF928
:040257000002BFF0F2
:040258000FFF3FEF66
:0402590000007FEC36
:04025A000000400F51
:04025B0000017FFC23
:04025C000FFF7FFE13
:04025D000FFF00048B
:04025E000FFF7FF21D
:04025F000FFD000689
:040260000FFF3FFE4F
:040261000FFCC00DC1
:0402620000003FFF5A
:040263000000400057
:040264000FFF7FEF1A
:040265000FFEBFFECB
:040266000FFFC000C6
:040267000FFEC002C4
:040268000003FFFE92
:040269000FFDC004C1
:04026A000000FFF998
:04026B0000027FE925
:04026C000FFB800004
:04026D000001C005C7
:04026E000FFF00007E
:04026F000FFE3FF34C
:040270000FFE3FF648
:040271000FFE7FFFFE
:040272000FFC800BF2
:040273000FFD000279
:040274000FFEBFEFCB
:040275000001BFEFD6
:04027600000100047F
:040277000FFFBFF7BF
:040278000000BFFEC5
:040279000FFF3FFD37
:04027A000000BFF8C9
:04027B000FFCBFF7BE
:04027C0000038005F6
:04027D000FFEC0169A
:04027E000001BFFAC2
:04027F000FFE800CE2
:040280000001BFFFBB
:040281000FFC8006E8
:040282000FFFC007A3
:040283000000BFFEBA
:040284000FFD8015D5
:040285000FFABFFCB1
:040286000FFEC003A4
:040287000FFDFFF771
:040288000FFF000064
:040289000FFFC000A3
:04028A000FFF800DD5
:04028B000FFDFFF96B
:04028C000FFD000062
:04028D000FFF8008D7
:04028E000FFE40001F
:04028F0000003FFE2E
:040290000FFCC00E91
:040291000FFD8010CD
:040292000FFD000458
:040293000FFFC00990
:040294000FFC7FF7E5
:040295000FFB00005B
:040296000FFF40090D
:040297000FFE8003D3
:040298000001C0069B
:0402990000023FEA36
:04029A000FFCFFF85E
:04029B000FFE7FFCD7
:04029C0000038002D9
:04029D000FFC800DC5
:04029E0000018008D3
:04029F0000008000DB
:0402A0000002400612
:0402A1000003BFF7A0
:0402A20000007FFEDB
:0402A3000FFD7FFECE
:0402A4000FFD7FFAD1
:0402A5000000000451
:0402A6000FFE7FFFC9
:0402A7000FFFC0067F
:0402A8000FFFC0077D
:0402A9000FFCBFFC8B
:0402AA000FFF7FECD7
:0402AB00000440000B
:0402AC000FFE4005FC
:0402AD0000028005C6
:0402AE000FFF3FF10E
:0402AF000001BFF695
:0402B0000FFDFFFA45
:0402B1000FFE3FFA03
:0402B2000000FFFC4D
:0402B30000027FF1D5
:0402B40000013FFC0A
:0402B5000FFCFFEF4C
:0402B60000004005FF
:0402B7000000FFFA4A
:0402B8000002C0126E
:0402B9000FFDBFFE78
:0402BA000000C0037D
:0402BB000FFFC0076A
:0402BC000FFC8004AF
:0402BD000FFD4007EA
:0402BE000001FFF745
:0402BF000000800AB1
:0402C00000018000B9
:0402C1000001400CEC
:0402C2000FFDC00A62
:0402C3000FFE7FF1BA
:0402C400000100072E
:0402C5000FFDC00762
:0402C60000003FF8FD
:0402C70000007FF5BF
:0402C8000FFF7FE7BE
:0402C9000FFCBFF671
:0402CA000000BFF67B
:0402CB000FFC3FFCE9
:0402CC000FFEFFFE24
:0402CD000FFCBFFA69
:0402CE000FFE80009F
:0402CF000FFF7FFBA3
:0402D00000008002A8
:0402D1000FFB7FF6AA
:0402D20000023FF9EE
:0402D3000FFF800891
:0402D4000FFD7FFAA1
:0402D5000FFE3FF0E9
:0402D6000000000024
:0402D7000001BFF86B
:0402D80000003FF6ED
:0402D9000FFA3FF3E6
:0402DA000FFCBFF95D
:0402DB000004000219
:0402DC000FFE800091
:0402DD000000C00558
:0402DE000000000C10
:0402DF000000000912
:0402E0000FFE4004C9
:0402E1000001C00652
:0402E20000017FFD9B
:0402E3000FFF000009
:0402E4000FFC3FF9D3
:0402E5000FFC3FFDCE
:0402E6000FFF000204
:0402E7000FFD000205
:0402E8000FFE7FFC8A
:0402E9000FFFFFFE06
:0402EA0000017FFD93
:0402EB0000023FF7D7
:0402EC000FFFC0043C
:0402ED0000007FEF9F
:0402EE000FFDFFEF12
:0402EF000000800685
:0402F0000FFF000DEF
:0402F10000027FF890
:0402F20000027FFF88
:0402F3000FFD7FF28A
:0402F40000004001C5
:0402F5000000800580
:0402F6000000800084
:0402F7000FFFFFF204
:0402F80000047FFD82
:0402F90000007FF48E
:0402FA000FFFFFEC07
:0402FB000FFC4001B3
:0402FC0000010002FB
:0402FD000FFFBFF63A
:0402FE0000010000FB
:0402FF000FFF4003AA
:040300000FFD3FFBB3
:040301000FFF7FFD6E
:040302000FFDFFFEEE
:040303000FFEBFFB2F
:040304000FFE0003E5
:0403050000014007AC
:040306000FFE3FF8AF
:040307000FFD800264
:040308000FFCC00422
:040309000FFE7FF76D
:04030A000000BFF838
:04030B000FFB80075D
:04030C000001FFED00
:04030D000FFA3FF8AC
:04030E000000400AA1
:04030F000000000AE0
:040310000FFCFFF9E6
:040311000FFDFFF9E4
:0403120000020001E4
:040313000FFB800557
:040314000FFF0004D3
:040315000FFF3FFC9B
:040316000001C0160C
:0403170000007FFB68
:0403180000023FF8A8
:040319000FFF0004CE
:04031A000FFF0002CF
:04031B000FFFBFFB16
:04031C000FFF40038C
:04031D000FFFFFF7D8
:04031E000000400B90
:04031F000000800159
:0403200000003FFB9F
:040321000FFEBFFC10
:040322000FFF3FF892
:040323000FFFC00305
:040324000002000FC4
:040325000FFFFFF1D6
:040326000FFF401174
:040327000001BFFB17
:040328000FFF400380
:0403290000000007C9
:04032A0000003FF69A
:04032B000004FFFDCE
:04032C000FFF0001BE
:04032D000FFEBFF10F
:04032E000FFD40106F
:04032F000FFD40037B
:0403300000047FF94D
:040331000FFD000EAE
:040332000FFAFFFEC1
:040333000FFF0002B6
:040334000FFAFFFCC1
:040335000FFFFFF6C1
:0403360000037FFC45
:0403370000017FFF43
:0403380000043FFA84
:040339000000400A76
:04033A000001800539
:04033B000001BFF40A
:04033C000FFE7FF73A
:04033D000FFE3FFB75
:04033E000FFBBFFDF5
:04033F000FFEBFF5F9
:040340000FFE400E5E
:040341000000000CAC
:040342000FFE400367
:040343000FFCC006E5
:040344000FFF400463
:040345000FFFC003E3
:0403460000033FFE73
:040347000FFFC002E2
:040348000FFFBFF7ED
:040349000FFEFFECB8
:04034A0000003FF878
:04034B0000003FFA75
:04034C000FFD3FF86A
:04034D000FFBFFFAA9
:04034E000FFC001789
:04034F000000FFECBF
:040350000000C001E8
:040351000000BFEFFA
:040352000000C00CDB
:0403530000013FFB6B
:0403540000053FF46D
:040355000FFF7FF81F
:040356000FFDBFF8E0
:0403570000033FF66A
:040358000000C005DC
:0403590000007FFE23
:04035A000FFF400849
:04035B0000017FFF1F
:04035C0000043FFC5E
:04035D000FFC401A37
:04035E000005400056
:04035F000FFD80010D
:0403600000007FFE1C
:0403610000003FEF6A
:040362000001001086
:040363000000800C0A
:040364000FFF800AFD
:040365000FFF800006
:040366000000400E45
:040367000000C002D0
:040368000004400944
:040369000FFB3FFA4D
:04036A000001C006C8
:04036B000002400745
:04036C000001FFFE8F
:04036D000FFF800AF4
:04036E000000000586
:04036F000FFEC00EAF
:040370000FFF8005F6
:0403710000003FEF5A
:040372000FFEFFFC7F
:0403730000013FEF57
:040374000002800FF4
:040375000FFEBFF4C4
:040376000FFFFFEE88
:040377000FFEBFF2C4
:040378000FFF400A29
:040379000FFDC00EA6
:04037A000000C003BC
:04037B000004FFF487
:04037C0000048007F2
:04037D000FFD7FF7FA
:04037E000002400A2F
:04037F0000003FF348
:0403800000013FF940
:040381000FFE3FF13B
:0403820000047FF400
:040383000FFCBFFEAE
:040384000002000370
:040385000FFCC008A1
:040386000FFFBFEABC
:040387000FFA3FEF3B
:040388000FFF8001E2
:040389000FFB7FF3F4
:04038A000FFDC001A2
:04038B0000048009E1
:04038C000FFD400120
:04038D000FFAC0069D
:04038E000FFEFFE27D
:04038F0000017FECFE
:040390000FFFC00596
:040391000002C002A4
:0403920000017FFEE9
:040393000001BFFEA8
:040394000FFF400215
:040395000FFEFFFE5A
:040396000FFFFFF85E
:040397000FFCFFF266
:040398000FFDBFFA9C
:040399000FFE7FFBD9
:04039A0000028000DD
:04039B000FFF7FEDE4
:04039C00000200005B
:04039D000FFFBFF49B
:04039E000000FFFB61
:04039F000FFD400608
:0403A0000FFEC00A82
:0403A1000001000651
:0403A200000040080F
:0403A3000FFD7FFDCE
:0403A4000FFDC00980
:0403A50000013FFC18
:0403A6000FFFC0067F
:0403A70000003FFD16
:0403A8000FFF7FEED6
:0403A9000FFF4003FF
:0403AA000005FFF556
:0403AB000FFFC00080
:0403AC000000000845
:0403AD000FFEFFF848
:0403AE000FFFBFFE80
:0403AF000FFE3FF20C
:0403B0000005FFF94C
:0403B1000FFC7FFAC4
:0403B2000002C00A7B
:0403B3000FFF8000B8
:0403B40000027FF7CD
:0403B5000000FFF64F
:0403B6000000C00D76
:0403B7000003FFEC54
:0403B8000FFEFFE94C
:0403B9000000FFEF52
:0403BA0000027FF9C5
:0403BB000000FFF54A
:0403BC000003BFEF8C
:0403BD000001BFFE7E
:0403BE000FFFFFEF3F
:0403BF000FFC4001EE
:0403C0000002BFF286
:0403C1000FFF3FE605
:0403C2000000FFF93F
:0403C3000FFDFFF833
:0403C4000002BFF57F
:0403C5000FFCFFF832
:0403C60000003FF5FF
:0403C7000FFF7FF2B3
:0403C8000FFFBFF074
:0403C9000FFAFFF236
:0403CA0000027FEEC0
:0403CB0000007FEFC0
:0403CC000FFF3FEEF2
:0403CD000003BFF278
:0403CE0000013FE10A
:0403CF000FFCFFE63A
:0403D0000FFF7FEBB1
:0403D10000027FE2C5
:0403D20000033FD510
:0403D3000002BFC3A2
:0403D4000006FF9E82
:0403D5000017BE64EB
:0403D6000FF100CE55
:0403D7000FF9C04812
:0403D8000FFF0029EA
:0403D9000FFEC02033
:0403DA000FFB801C79
:0403DB000FFC801380
:0403DC000FFF001DF2
:0403DD000FFD4009C7
:0403DE000000801685
:0403DF000FFF800983
:0403E0000FFE401EAE
:0403E1000FFBBFFC53
:0403E2000FFDBFF656
:0403E3000001000213
:0403E40000014015BF
:0403E5000FFEBFF751
:0403E600000400050A
:0403E7000FFBC00D3B
:0403E8000FFB3FFBCD
:0403E9000FFD0005FF
:0403EA000004800784
:0403EB000002400DBF
:0403EC000FFF80057A
:0403ED000FFDFFF110
:0403EE0000007FF993
:0403EF000002BFF752
:0403F0000FFE7FFB82
:0403F1000004000EF6
:0403F2000FFC4002BA
:0403F3000FFC4008B3
:0403F4000001000103
:0403F5000FFC4006B3
:0403F60000010009F9
:0403F7000FFF4011A3
:0403F8000004BFF34B
:0403F9000FFE3FEEC6
:0403FA0000014001BD
:0403FB0000010008F5
:0403FC000002FFFA02
:0403FD000002BFEC4F
:0403FE000FFEC00529
:0403FF000004400BAB
:00000001FF
