:040000000000C0003C
:040001000FFD800966
:040002000FFF7FFB72
:040003000FFE3FF9B4
:040004000000FFF900
:040005000FFE4003A7
:040006000FFE4000A9
:04000700000180086C
:040008000FFFC00521
:040009000001FFF7FC
:04000A000000C0032F
:04000B000FFE7FF570
:04000C000FFD800460
:04000D0000027FF975
:04000E000003400E9D
:04000F000FFEFFF4ED
:0400100000014007A4
:040011000FFE3FF8A7
:0400120000030012D5
:040013000000FFF6F4
:0400140000003FFFAA
:040015000003C0061E
:040016000FFD400694
:0400170000013FFFA6
:0400180000037FFD65
:040019000FFCC01107
:04001A00000080085A
:04001B00000040039E
:04001C000FFFBFFA19
:04001D000000401689
:04001E000FFEC00B06
:04001F000FFA0001D3
:040020000001FFF5E7
:040021000FFC801838
:0400220000013FFE9C
:040023000FFF0011BA
:040024000FFC800746
:040025000000801E39
:040026000FFA0014B9
:040027000FFFC01EE9
:040028000FF8402766
:040029000FFA405832
:04002A000FED80C195
:04002B00001EFE575E
:04002C0000067FA2A9
:04002D0000027FCA84
:04002E0000037FDF6D
:04002F0000023FE1AB
:040030000004FFE2E7
:0400310000017FEB60
:0400320000013FEF9B
:040033000001BFFD0C
:040034000002FFF0D7
:0400350000023FF78F
:040036000003FFF8CC
:040037000003FFEDD6
:0400380000027FF053
:040039000000BFF70D
:04003A000FFE3FF383
:04003B000001FFFAC7
:04003C00000040037D
:04003D000FFEFFFEB5
:04003E0000003FFE81
:04003F0000007FF34B
:040040000FFEBFF9F7
:0400410000003FF587
:040042000FFCFFF1BF
:040043000005BFEE07
:0400440000023FEC8B
:0400450000027FED49
:0400460000007FF542
:040047000FFD3FF971
:040048000FFF7FF730
:0400490000013FFC77
:04004A000001400071
:04004B000FFEFFFAAB
:04004C00000040066A
:04004D000FFCBFF7EE
:04004E000FFFFFEBB6
:04004F0000027FF23A
:040050000FFFC000DE
:040051000FFF800815
:040052000002BFF7F2
:040053000FFF7FF824
:040054000FFFFFFD9E
:0400550000027FF72F
:040056000FFEBFEEEC
:040057000FFDBFFDDD
:040058000003BFFFE3
:040059000FFF7FFC1A
:04005A0000047FEB34
:04005B000001BFF6EB
:04005C000FFC000095
:04005D0000017FE936
:04005E0000007FF02F
:04005F000000BFF9E5
:0400600000003FEF6E
:0400610000013FFF5C
:040062000FFE3FF559
:040063000FFF3FEC60
:0400640000023FF463
:0400650000023FE373
:040066000FFF001375
:040067000FFF400245
:040068000FFFFFFD8A
:0400690000033FF65B
:04006A0000053FFE50
:04006B000000FFFB97
:04006C000FFF3FF84B
:04006D000FFC3FFD48
:04006E000001800D00
:04006F000FFFBFF7C9
:040070000FFEFFFA86
:0400710000007FF814
:040072000FFF3FF548
:0400730000007FF416
:0400740000017FFB0D
:040075000FFF3FF743
:040076000FFCBFFDBF
:040077000FFE3FEE4B
:040078000FFD7FFBFE
:0400790000013FFD46
:04007A000FFE40092C
:04007B000003000975
:04007C0000007FFD04
:04007D000FFE3FF93A
:04007E000000C000BE
:04007F000FFF3FF937
:0400800000008009F3
:040081000FFF3FF539
:040082000001BFFDBD
:040083000000BFF6C4
:040084000FFC8006E7
:040085000FFEC003A7
:0400860000018007EE
:040087000000C006AF
:040088000FFE3FF830
:040089000FFF7FF7EF
:04008A000FFF3FFC29
:04008B000FFE8006DE
:04008C000001BFFEB2
:04008D000FFE401111
:04008E000002400329
:04008F000FFEFFFE63
:0400900000013FF933
:040091000FFE000757
:040092000FFFC0019B
:040093000FFEFFEB72
:0400940000017FFDEB
:040095000000BFFDAB
:0400960000028002E2
:040097000001C00F95
:040098000001BFEBB9
:040099000000000162
:04009A000FFFBFF69F
:04009B0000008009D8
:04009C00000240011D
:04009D0000007FFDE3
:04009E0000003FF42B
:04009F00000040100D
:0400A00000037FFCDE
:0400A100000000015A
:0400A2000004400412
:0400A30000008017C2
:0400A4000FFF3FFF0C
:0400A5000FFEBFFD8E
:0400A6000FFCFFFD4F
:0400A7000FFF7FF4D4
:0400A80000043FF918
:0400A9000FFFFFFF47
:0400AA000FFDC00482
:0400AB000FFF4006FD
:0400AC000FFFC00A78
:0400AD000000C00D82
:0400AE0000033FFA12
:0400AF000003BFFE8D
:0400B0000001000942
:0400B1000003FFFE4B
:0400B20000018009C0
:0400B3000FFF7FFCC0
:0400B4000002001036
:0400B5000001BFF88F
:0400B60000027FEADB
:0400B7000FFCBFFE7D
:0400B8000002FFF74C
:0400B90000017FFEC5
:0400BA000FFDFFF93E
:0400BB000000000041
:0400BC000FFFFFFD36
:0400BD000001000836
:0400BE000001C0037A
:0400BF000FFCBFEA89
:0400C0000000BFFB82
:0400C1000FFEFFF53A
:0400C20000028010A8
:0400C3000FFF3FF7F5
:0400C4000001C00077
:0400C50000023FF501
:0400C6000FFAFFFC32
:0400C7000FFE3FF3F6
:0400C80000003FFBFA
:0400C9000FFAFFF437
:0400CA000FFDC00462
:0400CB000FFD4003E2
:0400CC000FFEBFFB69
:0400CD00000300012B
:0400CE000FFF00061A
:0400CF0000017FF7B6
:0400D0000001FFFF2D
:0400D10000003FFAF2
:0400D2000FFEC0025B
:0400D3000FFF7FF9A3
:0400D4000FFE3FFDDF
:0400D50000004009DE
:0400D6000FFA400DD0
:0400D70000013FF8ED
:0400D8000000BFE580
:0400D9000000BFEF75
:0400DA000FFEC00451
:0400DB000FFBBFFB5D
:0400DC000FFE3FF6DE
:0400DD000FFE4002D0
:0400DE000FFE7FF2A0
:0400DF0000033FFBE0
:0400E00000044009CF
:0400E1000FFE00000E
:0400E2000002000117
:0400E3000FFFFFED1F
:0400E4000FFDBFFD50
:0400E5000FFEFFEF1C
:0400E6000FFF3FF0D9
:0400E7000FFE000BFD
:0400E8000002BFFE55
:0400E90000004001D2
:0400EA0000014006CB
:0400EB000FFDBFFD49
:0400EC000000BFF35E
:0400ED000000BFFB55
:0400EE000000FFF619
:0400EF000FFEBFE859
:0400F0000003400CBD
:0400F1000FFFBFF648
:0400F2000003800186
:0400F3000FFF4003B8
:0400F40000007FFA8F
:0400F5000FFCFFFA03
:0400F60000007FFB8C
:0400F7000FFD800277
:0400F8000FFF4003B3
:0400F90000003FF3D1
:0400FA000FFFBFFB3A
:0400FB0000007FF38F
:0400FC000FFEBFFC38
:0400FD000FFC3FF2C3
:0400FE0000023FFFBE
:0400FF0000050001F7
:0401000000057FF483
:040101000000C01723
:040102000FFD3FFCB2
:040103000003400EA7
:040104000FFDFFF7F5
:040105000002FFF500
:0401060000023FF0C4
:040107000FFE40089F
:040108000000000DE6
:040109000FFB800A5E
:04010A000FFD3FFEA8
:04010B000FFCFFF0F6
:04010C000FFE3FF3B0
:04010D000FFF3FF7AA
:04010E000FFF3FFAA6
:04010F000FFD40059B
:0401100000017FFE6D
:0401110000020003E5
:040112000FFBBFFC24
:040113000FFDBFFA23
:040114000004C0051E
:040115000001000CD9
:040116000FFDC00B0E
:040117000000000BD9
:040118000FFF3FF99D
:040119000FFDBFFF18
:04011A000002FFF8E8
:04011B0000007FF968
:04011C0000030010CC
:04011D000FFE0006CB
:04011E000006000ACD
:04011F0000000004D8
:040120000FFDBFFC14
:040121000FFD3FFB94
:040122000FFF3FFC90
:040123000FFF0000CA
:040124000001400F87
:0401250000007FFF58
:0401260000020007CC
:040127000FFFBFF512
:040128000FFF0005C0
:040129000FFF3FFD88
:04012A000000BFF220
:04012B000000801D33
:04012C000FFE80083A
:04012D000001C00409
:04012E000FFF7FFA46
:04012F000FFE800C33
:040130000FFCC00FF1
:040131000FFCBFF60A
:0401320000053FFC89
:0401330000017FF454
:040134000FFE3FF289
:040135000FFD7FFE3D
:040136000001400B79
:0401370000020000C2
:040138000FFDFFF7C1
:040139000FFFFFF5C0
:04013A000FFF7FF73D
:04013B000000BFF50C
:04013C000000FFF0D0
:04013D000FFCFFFFB5
:04013E0000027FF24A
:04013F000002800931
:0401400000033FEB8E
:040141000FFD3FF679
:040142000FFEBFEFFE
:0401430000020001B5
:040144000FFFBFEBFF
:040145000FFF0007A1
:040146000006800827
:0401470000000007AD
:040148000FFC800226
:040149000001C009E8
:04014A000FFE00079D
:04014B000005C008E3
:04014C000FFF001190
:04014D000FFF3FFB66
:04014E000FFF000897
:04014F000FFF3FF46B
:040150000FFEFFFDA2
:040151000FFE00039A
:04015200000180091F
:040153000000400167
:040154000FFEBFFEDD
:0401550000007FF631
:040156000001400064
:04015700000540035C
:040158000FFDC001D6
:040159000000800022
:04015A00000600009B
:04015B000FFEFFFB99
:04015C000FFB00078E
:04015D000000BFF3EC
:04015E000FFD000091
:04015F000FFD40024E
:040160000FFF7FFB13
:0401610000013FFE5C
:040162000FFFBFFCD0
:04016300000240074F
:040164000FFD000586
:0401650000027FEF26
:040166000000C000D5
:040167000003BFF9D9
:040168000FFF800302
:0401690000003FF162
:04016A0000023FF759
:04016B000001BFF9D7
:04016C00000300008C
:04016D000FFCC00DB6
:04016E0000027FFD0F
:04016F000FFCFFFB87
:0401700000033FFB4E
:040171000FFBBFF7CA
:040172000000000584
:040173000FFEFFF488
:040174000000FFFC8C
:040175000FFDFFF784
:040176000000C000C5
:040177000FFFBFF3C4
:040178000FFBC007B2
:0401790000023FEE53
:04017A000FFCC010A6
:04017B000000FFFC85
:04017C000FFF3FFF33
:04017D000002FFF786
:04017E000000BFFBC3
:04017F000FFE7FFAF6
:040180000003000672
:040181000003000374
:040182000FFCBFFDB2
:040183000FFF000466
:040184000FFFC01495
:04018500000100086D
:040186000FFFC00B9C
:040187000FFFFFF770
:0401880000003FFE36
:040189000003000D62
:04018A000000C00AA7
:04018B000FFE000B58
:04018C000FFC7FFEE7
:04018D000FFD400B17
:04018E000000C003AA
:04018F000003BFFBAF
:0401900000037FFEEB
:040191000FFE000558
:040192000002BFF8B0
:040193000FF98011CF
:040194000FFEC00B8F
:040195000FFFC00692
:0401960000033FFE25
:0401970000008002E2
:0401980000013FF92A
:0401990000003FFB28
:04019A000FFF000F44
:04019B000FFB800CCA
:04019C0000037FEEEF
:04019D0000007FFDE2
:04019E000002400813
:04019F00000040110B
:0401A0000000400318
:0401A1000FFF3FFE0F
:0401A2000000BFFB9F
:0401A3000FFFBFFB90
:0401A40000037FFDD8
:0401A5000000BFFD9A
:0401A6000FFCFFFC4F
:0401A70000007FF4E1
:0401A8000FFFC00382
:0401A90000033FF31D
:0401AA0000003FF31F
:0401AB000002000945
:0401AC000000BFFE92
:0401AD000FFEBFF58D
:0401AE000FFFBFFC84
:0401AF0000008012BA
:0401B0000FFD8010AF
:0401B10000023FFF0A
:0401B2000001C00088
:0401B30000037FF5D1
:0401B400000600043D
:0401B5000FFDC00179
:0401B60000007FFBCB
:0401B7000001BFFB89
:0401B80000037FEFD2
:0401B900000000063C
:0401BA00000100063A
:0401BB000FFCFFFB3B
:0401BC000FFD80179C
:0401BD0000033FF507
:0401BE0000017FF6C7
:0401BF00000100013A
:0401C0000FFFC00E5F
:0401C10000013FF604
:0401C2000FFF400FDC
:0401C3000FFF8008A2
:0401C4000FFC4001EB
:0401C5000FFDBFFE6D
:0401C6000FFB3FF7F5
:0401C7000FFFFFFD2A
:0401C80000003FF8FC
:0401C9000004BFF679
:0401CA000003C00668
:0401CB0000017FFAB6
:0401CC0000017FFBB4
:0401CD0000048003A7
:0401CE0000014013D9
:0401CF000000801498
:0401D00000034000E8
:0401D10000043FFBEC
:0401D2000003C00165
:0401D3000001400DDA
:0401D4000FFF4002D7
:0401D5000000BFFE69
:0401D60000014001E3
:0401D7000004FFF72A
:0401D8000FFE800A8C
:0401D9000FFC3FF8E0
:0401DA000FFD800B8A
:0401DB000FFF4005CD
:0401DC000FFEFFF81B
:0401DD0000003FFCE3
:0401DE0000014008D4
:0401DF000001000714
:0401E0000FFC7FFE93
:0401E1000000C00F4B
:0401E2000002BFFC5C
:0401E3000FFF3FF7D4
:0401E4000FFD80018A
:0401E50000024000D4
:0401E6000FFE000AFE
:0401E7000FFF800581
:0401E8000FFC400EBA
:0401E90000003FF7DC
:0401EA000002BFFF51
:0401EB000005800289
:0401EC000FFF4000C1
:0401ED000003000209
:0401EE000001BFFE4F
:0401EF000003BFF258
:0401F0000FFE7FEF90
:0401F1000001000CFD
:0401F2000001C00048
:0401F30000003FF6D3
:0401F4000FFC7FF984
:0401F50000040007FB
:0401F60000004004C1
:0401F70000023FFBC8
:0401F8000002BFFD45
:0401F90000010005FC
:0401FA0000007FFF83
:0401FB0000017FFE82
:0401FC000FFFBFFB37
:0401FD000FFC0003F0
:0401FE000FFE0006EA
:0401FF000FFD4000B0
:040200000FFF4000AC
:040201000FFD7FFF6F
:040202000FFE3FF9B3
:040203000FFC3FFCB1
:040204000FFF800464
:0402050000014001B3
:0402060000004000B4
:0402070000013FFAB9
:04020800000280026E
:0402090000020004EB
:04020A0000007FFB76
:04020B0000043FF8B4
:04020C000FFC40069D
:04020D0000000009E4
:04020E000001FFFFED
:04020F0000013FF3B8
:040210000FFE40108D
:040211000003800D59
:040212000001800166
:0402130000033FFDA8
:040214000FFF7FFF5A
:040215000005BFFD24
:040216000002800062
:0402170000000008DB
:040218000FFC7FF167
:040219000FFFBFFA1A
:04021A000FFE3FF59F
:04021B0000027FFF5F
:04021C000FFDBFFE15
:04021D000FFF0008C7
:04021E000002800357
:04021F000000FFF0EC
:040220000FFC40018E
:0402210000013FF8A1
:0402220000017FF761
:0402230000000003D4
:040224000FFEC00702
:040225000FFF7FFA4E
:040226000FFDBFF415
:040227000FFC0007C1
:040228000FFEBFF511
:040229000004C00805
:04022A0000017FFE52
:04022B00000080014E
:04022C000FFF7FFD44
:04022D0000017FF25B
:04022E000003FFFECC
:04022F0000040004C3
:0402300000037FFF49
:040231000000BFEB1F
:0402320000017FEC5C
:040233000004BFFC08
:040234000001400481
:04023500000140057F
:040236000003FFF9C9
:040237000004800936
:0402380000000007BB
:040239000FFFC002F1
:04023A000FFB0008AE
:04023B000FFD800132
:04023C000FFC7FFE36
:04023D000FFFBFF7F9
:04023E000FFF7FF03F
:04023F0000010009B1
:040240000FFFFFF1BC
:0402410000013FFE7B
:04024200000140096E
:040243000003000AAA
:040244000FFDBFE803
:040245000FFCC004E6
:0402460000013FF97B
:0402470000003FF97B
:04024800000340105F
:04024900000180042C
:04024A00000040046C
:04024B000FFDFFFEA6
:04024C0000063FFB6E
:04024D000003400A60
:04024E000001FFFFAD
:04024F0000020000A9
:040250000FFDBFEFF0
:040251000000BFEDFD
:040252000FFF800317
:040253000FFE800A10
:040254000000800125
:0402550000023FF66E
:040256000000000C98
:040257000003000C94
:040258000FFFFFFC99
:040259000000400B56
:04025A000FFCC003D2
:04025B00000080021D
:04025C000003400259
:04025D000FFF80040B
:04025E000000800418
:04025F000FFF00018C
:0402600000007FFC1F
:0402610000007FEE2C
:0402620000027FF720
:040263000000400255
:040264000003401142
:040265000FFBBFF3D9
:040266000FFF3FF057
:04026700000000048F
:04026800000100068B
:040269000000BFFDD5
:04026A00000300018C
:04026B000FFFFFF989
:04026C000FFEFFF48E
:04026D000FF9BFEED8
:04026E000002800703
:04026F000FFE3FFA45
:040270000003400146
:040271000003800402
:040272000000FFFC8D
:040273000FFD7FF408
:040274000FFC40013A
:040275000FFE3FF445
:040276000000FFF590
:0402770000033FF24F
:040278000000000181
:040279000FFFC008AB
:04027A000FFFFFF47F
:04027B0000013FF748
:04027C000FFFFFEB86
:04027D000FFF3FFB35
:04027E000FFC8002EF
:04027F0000033FFC3D
:0402800000033FF93F
:040281000FFE400527
:0402820000008004F4
:040283000002C008AD
:040284000FFF000068
:040285000000C003B2
:040286000FFCFFEF7B
:040287000002001160
:040288000FFBFFF871
:040289000FFF800CD7
:04028A000000FFFF72
:04028B000FFDC0089B
:04028C000000C003AB
:04028D000FFEC00B95
:04028E0000003FFA33
:04028F000FFB8008D9
:040290000003000463
:040291000FFCC0049A
:040292000002400224
:040293000FFCFFF26B
:0402940000033FFF25
:0402950000018006DE
:04029600000200085A
:040297000000000E55
:040298000FFFBFFC99
:0402990000038006D8
:04029A000000FFFF62
:04029B00000240100D
:04029C000FFD3FFA19
:04029D0000027FF8E4
:04029E000FFF8003CB
:04029F000001000159
:0402A0000FFF400408
:0402A1000FFD7FFDD1
:0402A2000FFD3FFF0E
:0402A3000000800CCB
:0402A4000FFB3FF815
:0402A5000FFEC00484
:0402A60000063FFF10
:0402A7000000BFFF95
:0402A8000FFDFFFE49
:0402A90000057FFCD1
:0402AA0000017FFFD1
:0402AB000000400906
:0402AC000FFE8001C0
:0402AD0000007FFED0
:0402AE000001BFF696
:0402AF000FFE3FFC03
:0402B0000FFEC0027B
:0402B1000FFF000B30
:0402B2000FFF3FF704
:0402B3000FFF000435
:0402B4000FFF3FEE0B
:0402B5000005FFF74A
:0402B6000FFE3FF800
:0402B7000001FFF64D
:0402B8000FFCBFFD7B
:0402B90000003FF80A
:0402BA000006BFF784
:0402BB000FFF3FF8FA
:0402BC000FFF80149C
:0402BD0000023FFEFE
:0402BE000FFE80109F
:0402BF000FFD000926
:0402C0000003001423
:0402C1000002BFF682
:0402C2000002400DE9
:0402C3000FFCC0006C
:0402C4000000C00F67
:0402C5000000800AAB
:0402C6000FFF4008DE
:0402C7000FFFC00A5B
:0402C8000FFDC0085E
:0402C90000023FFFF1
:0402CA0000017FF4BC
:0402CB000FFD4001E2
:0402CC000FFE000D14
:0402CD000001400BE1
:0402CE000005000324
:0402CF000FFC800997
:0402D0000FFCFFF030
:0402D1000FFEBFF36A
:0402D2000FFF4005D5
:0402D3000001FFFB2C
:0402D4000FFEBFF763
:0402D5000000BFE284
:0402D6000000800D97
:0402D7000FFF000213
:0402D8000FFF3FFADB
:0402D9000FFF800A89
:0402DA0000023FF8E7
:0402DB0000004000DF
:0402DC0000017FF0AE
:0402DD000FFF3FFFD1
:0402DE000FFF00030B
:0402DF000FFD00040B
:0402E0000FFD80038B
:0402E10000003FFBDF
:0402E20000063FF5DE
:0402E3000FFE3FF9D2
:0402E40000033FEFE5
:0402E50000004006CF
:0402E6000002C0074B
:0402E7000FFD800087
:0402E8000FFF0006FE
:0402E90000003FF4DE
:0402EA000FFDFFF411
:0402EB0000013FF3DC
:0402EC000004FFFA11
:0402ED000FFD80057C
:0402EE000FFB80037F
:0402EF0000023FFCCE
:0402F00000014001C8
:0402F1000FFD7FFA84
:0402F2000FFF0005F5
:0402F3000FFF0008F1
:0402F4000FFE000CED
:0402F5000FFCC00F2B
:0402F6000FFD0001F7
:0402F7000FFBBFF545
:0402F80000003FF2D1
:0402F9000FFE7FF77E
:0402FA000002000FEF
:0402FB000002C00A33
:0402FC000FFDC0082A
:0402FD0000037FF18A
:0402FE000FFD0003ED
:0402FF000000FFE814
:040300000005400BA9
:0403010000053FFEB6
:0403020000020000F5
:040303000FFC000DDE
:040304000FFE800365
:040305000000400CA8
:040306000FFF800461
:040307000000000CE6
:040308000FFF7FFC68
:040309000FFDBFFD28
:04030A0000004004AB
:04030B000FFCC0051E
:04030C0000004005A8
:04030D000FFF7FFC63
:04030E000003BFFE2B
:04030F000FFF800953
:0403100000037FF374
:040311000FFE801744
:040312000000C0091E
:040313000000800462
:040314000000800C59
:040315000FFD800256
:0403160000017FF96A
:0403170000007FFE65
:04031800000280015E
:040319000FFE3FF4A0
:04031A000FFF000FC2
:04031B000FFEC01001
:04031C000FFD80024F
:04031D000FFFC012FC
:04031E0000023FFE9C
:04031F000FFE3FFF8F
:0403200000047FF660
:0403210000030004D1
:040322000FFE400D7D
:040323000FFE7FFD4D
:040324000FFE0009BF
:040325000FFB800446
:040326000FFEFFFBCC
:040327000000801042
:040328000000801A37
:0403290000010007C8
:04032A000FFA7FF255
:04032B0000007FF659
:04032C000FFE0002BE
:04032D000FFF400678
:04032E000FFEFFFDC2
:04032F0000000005C5
:040330000001C00008
:04033100000140087F
:040332000FFF3FF981
:0403330000033FFE86
:040334000FFE800434
:040335000FFD7FFC3D
:040336000FFDFFFBBD
:040337000FFAC00BEE
:0403380000000004BD
:040339000FFE000CA7
:04033A000FFAC003F3
:04033B000002000AB2
:04033C000001FFFFBE
:04033D000FFF0008A6
:04033E000002BFEF0B
:04033F000FFEC00AE3
:040340000000800435
:040341000FFC801518
:040342000001FFFCBB
:0403430000013FF77F
:040344000FFFC002E5
:0403450000003FFF76
:040346000FFDC006E1
:040347000001400170
:040348000002C008E7
:040349000FFC800124
:04034A000002401558
:04034B000001800726
:04034C0000023FEF7D
:04034D000FFF40035B
:04034E000001BFF6F5
:04034F000003C001E6
:0403500000013FF673
:040351000003800124
:04035200000300059F
:040353000000FFF2B5
:040354000FFFFFF5A3
:040355000FFF7FF91E
:040356000FFDFFFB9D
:040357000FFFC000D4
:040358000004000697
:040359000FFF400B47
:04035A000FFCC002D2
:04035B000FFE80020F
:04035C000FFF00008F
:04035D000000BFE8F5
:04035E0000047FFB1D
:04035F0000003FFE5D
:040360000003400353
:0403610000007FEF2A
:040362000000000B8C
:040363000000400254
:0403640000027FFE16
:040365000000BFF6DF
:040366000FFF8009FC
:0403670000003FFE55
:0403680000018014FC
:040369000001FFF0A0
:04036A000002BFFDD1
:04036B00000080020C
:04036C00000140024A
:04036D000FFEC014AB
:04036E000FFFFFFE80
:04036F000FFE3FF846
:040370000001000682
:040371000FFEC001BA
:0403720000027FFC0A
:040373000FFE7FEE0C
:040374000001800103
:040375000FFEBFF9BF
:040376000FFF000372
:040377000FFF40082C
:040378000FFE00076D
:040379000000FFF988
:04037A000001BFF8C7
:04037B000FFEFFFC76
:04037C000FFCBFF9BA
:04037D0000008009F3
:04037E0000018002F8
:04037F000FFF000A62
:040380000000BFF6C4
:040381000FFF000664
:040382000000FFFF79
:040383000FFE000663
:040384000000400233
:0403850000033FF63C
:040386000FFE7FF6F1
:04038700000100026F
:040388000FFD400421
:040389000FFE001152
:04038A000FFC8002E2
:04038B000FFF000858
:04038C000001400428
:04038D000000400B21
:04038E000FFF000A53
:04038F000000400723
:040390000FFEC00597
:040391000FFF8008D2
:040392000001BFF2B5
:040393000FFC000259
:040394000FFF000750
:040395000000C004A0
:04039600000500015D
:040397000003000956
:040398000FFFC00291
:040399000FFF7FFDD6
:04039A000FFF3FEC26
:04039B000002001C40
:04039C000002000B50
:04039D000FFF00133B
:04039E000FFE000A44
:04039F000001000059
:0403A0000000001049
:0403A10000008006D2
:0403A2000000400F08
:0403A30000014016FF
:0403A4000FFC3FFF0C
:0403A50000018009CA
:0403A60000044014FB
:0403A7000FFF400301
:0403A80000038000CE
:0403A9000FFD8002C2
:0403AA000FFE8011B1
:0403AB000002400804
:0403AC000FFFC0027D
:0403AD000FFF4007F7
:0403AE0000028008C1
:0403AF000FFFBFF786
:0403B0000FFFFFFF3D
:0403B1000002400DF9
:0403B2000FFFC01465
:0403B3000FFC8008B3
:0403B40000007FF9CD
:0403B5000FFEC00572
:0403B60000017FFFC4
:0403B700000100033E
:0403B8000FFF4008EB
:0403B9000FFD00062E
:0403BA000000400AF5
:0403BB0000024012EA
:0403BC000002001328
:0403BD0000058011A6
:0403BE000FFCC00E62
:0403BF000000000A30
:0403C0000FFE8006A6
:0403C1000000400CEC
:0403C2000000000136
:0403C3000FFEC00168
:0403C40000007FFCBA
:0403C5000001C0056E
:0403C6000FFE000C1A
:0403C70000008008AA
:0403C8000002400FE0
:0403C9000003C0125B
:0403CA000003C00765
:0403CB000002000824
:0403CC000002C00F5C
:0403CD0000018002A9
:0403CE00000100101A
:0403CF0000014014D5
:0403D0000004C01D48
:0403D1000002001E08
:0403D20000034020C4
:0403D30000024035AF
:0403D4000006405D82
:0403D500001EC1A89D
:0403D6000FEDBF3E2A
:0403D7000FFA7FA7F3
:0403D8000FF87FD8C3
:0403D9000FFFFFE132
:0403DA000FFA3FEBEC
:0403DB000000BFE17E
:0403DC000FFCBFF85B
:0403DD000FFF3FEEE1
:0403DE000001000119
:0403DF000FFCBFE769
:0403E0000001C00A4E
:0403E1000FFA3FFED2
:0403E2000FFEFFF417
:0403E30000007FE9AE
:0403E4000FFF800582
:0403E50000007FFC99
:0403E6000000BFF75D
:0403E7000FFCFFEE1A
:0403E80000034002CC
:0403E900000100000F
:0403EA000FFD7FF98B
:0403EB000003FFF913
:0403EC00000000000D
:0403ED000000C00943
:0403EE0000033FEDDC
:0403EF000FFE0007F6
:0403F00000017FF891
:0403F1000FFEC00B30
:0403F20000037FF194
:0403F30000024006BE
:0403F4000FFDBFFB3F
:0403F5000FFE400AAD
:0403F6000000FFFC08
:0403F7000001C00839
:0403F8000FFFFFFAFA
:0403F9000001BFF749
:0403FA000FFE7FFF74
:0403FB000FFE7FFC76
:0403FC000000C00637
:0403FD000FFE0006E9
:0403FE000FFF4004A9
:0403FF000FFDBFF639
:00000001FF
