:040000000004800078
:040001000000BFF646
:040002000000BFF546
:0400030000003FFBBF
:040004000000BFFF3A
:0400050000030008EC
:0400060000027FF87D
:0400070000013FFEB7
:040008000001FFF400
:040009000FFF4001A4
:04000A000FFCBFFB2D
:04000B0000010008E8
:04000C000000800C64
:04000D000003400AA2
:04000E000FFF80015F
:04000F0000017FFB72
:040010000003BFFD2D
:040011000003800068
:0400120000034001A6
:040013000FFE7FFE5F
:040014000FFE0003D8
:040015000003FFEBFA
:040016000003BFFD27
:040017000004BFFD25
:040018000001800162
:040019000FFEFFF3E4
:04001A0000037FF868
:04001B0000013FFBA6
:04001C000002FFF9E6
:04001D000003400597
:04001E000003BFF428
:04001F0000027FFB61
:040020000003400099
:0400210000047FEC6C
:040022000001BFE634
:0400230000043FFC9A
:0400240000043FF89D
:040025000005BFDE35
:0400260000057FF161
:040027000004FFE6EC
:0400280000093FD2BA
:04002900000BBFD336
:04002A0000267F6BC2
:04002B000FB2812867
:04002C000FEE404F44
:04002D000FF6801C2E
:04002E000FF6802722
:04002F000FFCC011F1
:040030000FFE0014AB
:040031000000401675
:040032000FFB0017A9
:040033000FFDC010ED
:040034000FFF0006B4
:040035000FFA80033B
:040036000FFC800B30
:040037000000BFFF07
:040038000002C010F2
:040039000FF9800F2C
:04003A000002400977
:04003B000FFC0006B0
:04003C000FFF800F23
:04003D000FFB40096C
:04003E000FFA0013A2
:04003F0000057FFE3B
:040040000FFD40135D
:040041000FFB0004AD
:040042000003BFEE0A
:040043000FFEFFFDB0
:040044000FFD400D5F
:0400450000027FFD39
:040046000FFFC012D6
:040047000FFF400E59
:040048000001C000F3
:040049000FFE7FFB2C
:04004A000FFC400A5D
:04004B000FFE3FFC69
:04004C00000040046C
:04004D000001400A64
:04004E000FFF3FFC65
:04004F000FFCFFFEA5
:040050000000C003E9
:040051000000400F5C
:040052000FFFBFFCE1
:040053000FFF000497
:040054000FFFC002D8
:040055000FFF800415
:040056000FFCC00ECD
:040057000FFD800F0A
:040058000FFFBFFDDA
:0400590000023FF56D
:04005A000FFEC00CC9
:04005B000002BFFFE1
:04005C00000040015F
:04005D000FFEFFFC97
:04005E000FFEBFFFD3
:04005F000002BFF7E5
:040060000000000696
:040061000FFEC002CC
:040062000002000593
:040063000FFF800605
:040064000001C000D7
:040065000FFF800CFD
:040066000FFDBFFDCE
:040067000FFC8015F5
:040068000FFE400344
:040069000001FFF59E
:04006A000FFE7FF70F
:04006B000FFF3FF450
:04006C000002C008C6
:04006D000FFB400540
:04006E000000000985
:04006F000000C002CB
:040070000FFD400B35
:040071000003400642
:040072000FFE40033A
:0400730000043FF84E
:0400740000017FF90F
:040075000001800600
:040076000000800501
:040077000FFFBFF2C6
:040078000000BFF5D0
:0400790000013FFE45
:04007A000000BFFCC7
:04007B000FFD7FFDF9
:04007C000FFC3FFE38
:04007D000FFF00046D
:04007E000FFBC004B0
:04007F00000040102D
:04008000000200007A
:040081000FFE3FFB34
:040082000000C00DAD
:040083000FFF000368
:040084000FFE3FF933
:040085000FFDBFFAB2
:040086000FFCFFFE6E
:0400870000008004F1
:040088000000BFFBBA
:0400890000013FF63D
:04008A000FFF8003E1
:04008B000FFE3FFF26
:04008C000FFEBFF8AC
:04008D000005FFF873
:04008E000FFCC00C97
:04008F000FFE000858
:0400900000037FFAF0
:0400910000027FF8F2
:040092000000BFF6B5
:040093000FFBBFF8A8
:040094000000C005A3
:040095000000C0089F
:040096000FFE400613
:040097000FFFFFFC5C
:040098000000C0079D
:040099000FFE001244
:04009A000FFD8003D3
:04009B000FFB8008CF
:04009C000FFFBFFF94
:04009D000001000856
:04009E000FFDFFFE55
:04009F000000000D50
:0400A0000002800CCE
:0400A10000018008D2
:0400A2000001400712
:0400A3000FFF7FF8D4
:0400A4000001FFFA5E
:0400A5000FFD8007C4
:0400A600000100064F
:0400A7000FFFFFEB5D
:0400A8000003FFFB57
:0400A9000FFC800CBC
:0400AA00000100064B
:0400AB000FFE8005BF
:0400AC0000017FF3DD
:0400AD000FFFC0077A
:0400AE000003400209
:0400AF000FFDC00B76
:0400B00000008003C9
:0400B1000FFB000B36
:0400B2000002C00484
:0400B3000FFB4003FC
:0400B4000FFFBFF586
:0400B5000004BFF58F
:0400B6000004400002
:0400B7000000FFFD49
:0400B8000FFD4000F8
:0400B90000043FFB05
:0400BA0000028008B8
:0400BB000FFD000431
:0400BC000FFF000B27
:0400BD0000007FFEC2
:0400BE000001400CF1
:0400BF0000003FFFFF
:0400C00000017FF3C9
:0400C10000023FFEFC
:0400C20000018009B0
:0400C3000FFF001318
:0400C4000000400BED
:0400C5000FFEBFFD6E
:0400C60000038000B3
:0400C7000FFCC00367
:0400C80000007FF1C4
:0400C90000027FFEB4
:0400CA0000017FFCB6
:0400CB0000013FF001
:0400CC000FFFC00C56
:0400CD000001FFFE31
:0400CE000FFF3FF8E9
:0400CF000FFDFFFF23
:0400D00000028006A4
:0400D1000000BFF973
:0400D2000000FFF932
:0400D30000007FFEAC
:0400D4000FFDFFF825
:0400D5000FF97FFAA6
:0400D6000002C0065E
:0400D7000FFE000612
:0400D8000FFFFFF324
:0400D9000FFE4002D4
:0400DA000FFF7FFA9B
:0400DB0000003FF6EC
:0400DC000FFE7FF69E
:0400DD000FFA7FF3A4
:0400DE000FFEFFF919
:0400DF0000004005D8
:0400E0000FFE3FF1DF
:0400E1000FFF7FF39B
:0400E2000FFF000507
:0400E3000002BFFD5B
:0400E4000002000115
:0400E5000FFF800B7E
:0400E6000FFB80018B
:0400E7000FFDBFFB4F
:0400E8000FFF000006
:0400E9000001800092
:0400EA000000400BC7
:0400EB0000013FFFD2
:0400EC000FFEFFFA0A
:0400ED000FFF4018A9
:0400EE000FFE4003BE
:0400EF000000BFF757
:0400F0000FFFFFFD02
:0400F1000FFF4001BC
:0400F2000004800284
:0400F3000FFDBFF846
:0400F4000001FFF513
:0400F5000FFEC00436
:0400F6000002BFF64F
:0400F700000080176E
:0400F8000FFC800475
:0400F9000FFFFFF600
:0400FA000000FFFB08
:0400FB000FFF7FF282
:0400FC000FFD7FFF76
:0400FD000000FFF808
:0400FE000FFFBFF63B
:0400FF000FFBBFFD37
:040100000FFEFFEE01
:040101000FFD7FF778
:040102000FFE0001EB
:040103000000800573
:040104000FFB800568
:040105000FFF7FED7C
:040106000FFE0005E3
:040107000FFE3FEFB9
:040108000FFD7FFC6C
:040109000FFFFFFEE7
:04010A0000023FEEC2
:04010B000FFD3FFDA8
:04010C0000013FF7B8
:04010D000000800767
:04010E000FFF800956
:04010F000FFE7FFC64
:0401100000003FF9B3
:040111000003400A9D
:040112000001BFFE2B
:040113000FFFFFFEDD
:040114000FFE800357
:040115000002BFF431
:040116000FFD3FF5A5
:040117000FFC800257
:040118000001C00022
:040119000FFF0003D1
:04011A000FFAC00513
:04011B000FFF000CC6
:04011C000FFF3FFD95
:04011D000000FFF9E6
:04011E000FFBFFFFD5
:04011F000FFD0001CF
:040120000000801249
:040121000FFCBFF917
:040122000FFF3FFC90
:0401230000040000D4
:040124000001C01501
:040125000003C00A09
:040126000000C0060F
:040127000FFFFFFDCA
:040128000002BFED25
:040129000FFF7FFD48
:04012A000001000BC5
:04012B000FFDFFFEC7
:04012C000FFFC009F8
:04012D000FFF7FF948
:04012E000FFD400879
:04012F000FFDC00000
:040130000FFDFFFEC2
:040131000FFF800735
:040132000004BFFD09
:040133000FFEBFFA02
:040134000000800245
:040135000FFDBFFA01
:040136000FFCC018E2
:0401370000037FEA58
:0401380000003FF88C
:040139000FFE000EA7
:04013A000FFE3FF283
:04013B0000030000BD
:04013C000FFE0005AD
:04013D000FFE800928
:04013E000FFF3FEF81
:04013F000FFF7FF936
:040140000003C007F1
:040141000003401463
:040142000FFE7FF736
:040143000FFF400466
:040144000000800037
:040145000FFCBFFDEF
:0401460000013FF87D
:040147000FFE3FFC6C
:040148000001000CA6
:040149000FFFC006DE
:04014A000003800628
:04014B000FFCC003E2
:04014C00000140016D
:04014D000FFC80061D
:04014E000003400A60
:04014F000FFFC001DD
:040150000001400B5F
:040151000FFE000994
:040152000FFE40025A
:040153000FFE800615
:040154000004C008DB
:040155000003800A19
:04015600000400069B
:040157000FFE3FFE5A
:040158000FFE7FF81F
:040159000FFD7FF91E
:04015A000FFF000291
:04015B000001FFF4AC
:04015C000FFE000092
:04015D000002800616
:04015E000000400954
:04015F000FFF3FFE51
:040160000000BFFAE2
:040161000001C00ACF
:040162000000BFFEDC
:040163000FFD001577
:040164000FFDFFFC90
:040165000003BFF8DC
:0401660000007FF125
:040167000FFF800AFC
:040168000FFDBFF2D6
:040169000FFEBFF4D2
:04016A0000013FFF52
:04016B00000000058B
:04016C000FFCBFF4D1
:04016D000FFE7FF70B
:04016E000003C009C1
:04016F000000FFF39A
:040170000003FFF990
:040171000FFE400439
:040172000FFF7FF507
:040173000FFDBFF4C9
:040174000001FFF295
:040175000003C000C3
:040176000FFF40082F
:04017700000040073D
:0401780000033FF849
:0401790000007FFD06
:04017A000FFD7FFBFB
:04017B000002C004BA
:04017C000FFEFFFE75
:04017D000FFC7FF8FC
:04017E0000007FF00E
:04017F000001BFFEBE
:040180000FFCFFFE73
:040181000FFCFFF878
:040182000002FFF97F
:040183000FFEBFFEAE
:040184000FFF400227
:040185000003BFFFB5
:040186000FFE7FFFEA
:04018700000040052F
:0401880000017FFFF4
:04018900000040082A
:04018A000FFFBFF5AF
:04018B000002BFFCB3
:04018C000FFF8001E0
:04018D000000800CE2
:04018E0000017FF6F7
:04018F000FFF400A14
:040190000FFD3FFC24
:040191000FFD400F0F
:040192000FFF7FFBE1
:04019300000100085F
:040194000FFF400D0C
:040195000000400026
:040196000FFEFFFD5C
:040197000FFEFFFF59
:040198000FFE400D09
:040199000FFEC00392
:04019A000001C0049C
:04019B0000023FEE31
:04019C000FFE8017BB
:04019D000FFD8008CA
:04019E000FF98007CE
:04019F0000007FFDE0
:0401A0000FFFFFF856
:0401A1000FFE8002CB
:0401A20000047FF1E5
:0401A3000FFF400406
:0401A4000FFFFFF258
:0401A500000440070B
:0401A600000100064E
:0401A7000000400A0A
:0401A8000FFDBFFD8B
:0401A9000FFF3FFC09
:0401AA000FFE3FFC09
:0401AB000FFEFFFC48
:0401AC0000008006C9
:0401AD0000033FF814
:0401AE000FFEFFFF42
:0401AF000FFE400EF1
:0401B0000000000348
:0401B1000FFD800AB4
:0401B2000FFE4000FC
:0401B3000FFD800AB2
:0401B4000FFDBFF488
:0401B5000FFDFFF942
:0401B6000001400202
:0401B7000FFABFFF7D
:0401B8000FFF000035
:0401B90000038006B9
:0401BA000FFE8005AF
:0401BB000001C0017E
:0401BC000002FFF747
:0401BD0000023FFEFF
:0401BE000FFC7FF6BD
:0401BF000FFE3FFDF3
:0401C0000001000139
:0401C1000FFFFFEA43
:0401C2000FFF000E1D
:0401C30000037FEFC7
:0401C40000043FFCF8
:0401C5000FFD4000EA
:0401C6000FFEFFFC2D
:0401C7000005000728
:0401C80000028008A9
:0401C9000000FFFA39
:0401CA0000023FF9F7
:0401CB000FFFBFFF64
:0401CC0000027FF7B7
:0401CD000002FFFE2F
:0401CE000FFC3FFFE4
:0401CF000FFAC00B58
:0401D0000FFE800896
:0401D1000001000425
:0401D2000FFDFFF22C
:0401D300000400081C
:0401D4000FFF000C0D
:0401D5000001FFFE28
:0401D6000000C0095C
:0401D70000023FFCE7
:0401D8000002BFF270
:0401D9000000C0065C
:0401DA000FFDC00055
:0401DB0000004006DA
:0401DC0000007FFEA2
:0401DD000000BFF867
:0401DE0000017FECB1
:0401DF0000017FFCA0
:0401E0000000000B10
:0401E1000FFA00020F
:0401E2000FFE000309
:0401E3000000800593
:0401E4000FFF000108
:0401E5000FFF3FFACF
:0401E6000FFEBFED5C
:0401E7000FFDBFF158
:0401E8000FFBFFFA10
:0401E90000037FFB95
:0401EA000000C0074A
:0401EB000FFC4003C2
:0401EC000FFE7FFF84
:0401ED000FFE7FF88A
:0401EE000FFCFFFF04
:0401EF0000017FF894
:0401F0000001FFFB10
:0401F1000001000306
:0401F2000FFD0001FC
:0401F3000FFF000BEF
:0401F4000FFD0002F9
:0401F5000FFEFFFCFE
:0401F6000001FFFB0A
:0401F7000003800180
:0401F8000FFF400CA9
:0401F9000001C00A37
:0401FA000001BFFE43
:0401FB000FFCBFF145
:0401FC000001FFFA05
:0401FD0000003FFEC1
:0401FE0000040005F4
:0401FF000002400CAE
:040200000FFD80006E
:0402010000027FF385
:0402020000043FFABB
:0402030000000001F6
:040204000001C00530
:040205000FFC800E5C
:040206000001800172
:040207000001FFF5FE
:040208000FFF7FF372
:040209000003BFFE31
:04020A000001C0042B
:04020B000FFEC0031F
:04020C000FFD3FFDA6
:04020D000FFF3FF4AC
:04020E000FFD3FFEA3
:04020F0000013FFCAF
:040210000001C00425
:0402110000014007A1
:040212000FFCC0001D
:040213000FFE400793
:040214000FFE400099
:040215000FFC7FFC5F
:040216000000FFF8ED
:04021700000340049C
:040218000FFBC00513
:040219000FFD800E47
:04021A000FFE801241
:04021B000FFF0005CC
:04021C000FFF3FFE93
:04021D000000BFFA24
:04021E000FFE3FFC94
:04021F000FFA3FFD96
:0402200000003FF4A7
:040221000001400395
:040222000001401384
:040223000000800750
:040224000000400195
:0402250000007FF95D
:040226000FFDFFFFCA
:040227000000FFF9DB
:040228000002800D43
:0402290000020003CC
:04022A000000FFF6DB
:04022B000001C0010D
:04022C000FFF3FF38E
:04022D0000043FF793
:04022E000FFDC00DF3
:04022F0000013FFB90
:040230000FFEBFF707
:040231000FFAFFF4CD
:040232000FFC0000BD
:040233000002C00104
:04023400000240087C
:040235000FFF800037
:0402360000020006BC
:040237000000C005FE
:040238000002BFF70A
:0402390000053FF885
:04023A000FFEC003F0
:04023B000FFD7FFF35
:04023C0000040003B7
:04023D00000340106A
:04023E000FFF3FF17E
:04023F000FFFC015D8
:0402400000013FFE7C
:040241000FFE0002AA
:040242000FFC400964
:0402430000020001B4
:040244000002C008EC
:040245000001FFFEB7
:040246000FFEBFFAEE
:040247000003BFF9F8
:040248000FFF3FFF66
:040249000FFA800028
:04024A0000017FFD33
:04024B000FFDC006DD
:04024C000FFD800B17
:04024D000FFDBFF5ED
:04024E000FFE7FFF21
:04024F000FFDBFF5EB
:0402500000003FFC6F
:040251000FFE7FF12C
:040252000FFEC000DB
:04025300000300079D
:040254000000BFF9EE
:040255000FFEC003D5
:040256000FFE000394
:040257000FFF000392
:040258000FFD800214
:0402590000007FF52D
:04025A0000013FF967
:04025B0000047FF824
:04025C000FFFC00DC3
:04025D000FFF7FFB15
:04025E000004400E4A
:04025F000FFEBFFDD2
:040260000FFFC007C5
:040261000000400257
:040262000FF9BFF8D9
:040263000FFDBFF7D5
:040264000FFEBFE8E2
:040265000002001182
:040266000001FFFB99
:040267000FFEFFFC8B
:040268000FFE7FF214
:040269000FFEC000C4
:04026A000FFEC002C1
:04026B0000007FFF11
:04026C000FFF7FF20F
:04026D0000013FF756
:04026E000FFF40043A
:04026F000FFD7FF010
:040270000FFD00037B
:040271000FFF7FF507
:04027200000140093E
:040273000000BFF3D5
:040274000FFFBFFEBB
:040275000002800300
:040276000FFF800AEC
:0402770000007FF70D
:040278000001400041
:0402790000007FFA08
:04027A000FFE400033
:04027B0000038000FC
:04027C000FFF7FFDF4
:04027D000FFE8001EF
:04027E000002C006B4
:04027F000FFCC007A9
:040280000FFCC001AE
:0402810000018001F7
:040282000000400F29
:040283000FFC400725
:040284000FFEC001A8
:040285000002FFFB79
:040286000FFD400424
:040287000000400231
:040288000003000768
:0402890000007FF8FA
:04028A000FFF7FF7EC
:04028B000003FFFF6E
:04028C000001C00DA0
:04028D000FFD800BD6
:04028E000FFF400A14
:04028F000FFE7FFBE4
:040290000003C006A1
:040291000000C00C9D
:040292000003FFF670
:040293000FFE400812
:040294000FFC800BD0
:0402950000003FFA2C
:040296000001000063
:040297000FFE800BCB
:040298000FFD800DC9
:040299000FFFBFF59F
:04029A000000400E12
:04029B0000038007D5
:04029C000FFDC0038F
:04029D000FFD3FEA28
:04029E0000008001DB
:04029F000001FFF566
:0402A00000008005D5
:0402A1000FFF00014A
:0402A20000007FF6E3
:0402A3000002BFF99D
:0402A4000FFE3FFF0B
:0402A5000001C00B89
:0402A6000FFF3FFD0A
:0402A7000FFD400601
:0402A8000FFE4007FE
:0402A9000FFE000143
:0402AA0000043FF914
:0402AB000003BFF598
:0402AC000004FFF754
:0402AD000FFEBFF988
:0402AE000FFE7FFDC3
:0402AF000FFE3FF609
:0402B00000017FF4D6
:0402B1000FFFFFFE3E
:0402B20000037FF5D1
:0402B3000FFCBFF984
:0402B40000017FFEC8
:0402B5000FFCFFFC3F
:0402B6000003BFF989
:0402B7000FFFFFF93D
:0402B80000013FF30F
:0402B9000FFE000331
:0402BA000001000738
:0402BB000FFC8002B2
:0402BC000000BFFF80
:0402BD000FFF7FFBB5
:0402BE000FFE4008E7
:0402BF0000037FEBCE
:0402C0000003FFF840
:0402C1000FFF4006E5
:0402C2000FFF00101A
:0402C3000FFEBFF675
:0402C4000FFE3FFAF0
:0402C50000033FFFF4
:0402C6000FFE000D1A
:0402C7000FFE3FF1F6
:0402C800000000072B
:0402C90000034015D9
:0402CA000FFCFFE73F
:0402CB000FFD80059E
:0402CC000000BFFD72
:0402CD000FFE80059B
:0402CE0000048002A6
:0402CF000FFFBFF866
:0402D0000FFDC0015D
:0402D1000FFDFFFF1F
:0402D2000FFD7FF7A6
:0402D3000FFF4006D3
:0402D4000FFFFFF623
:0402D5000FFDC00158
:0402D60000013FF4F0
:0402D7000FFF4002D3
:0402D800000280128E
:0402D9000FFFC00251
:0402DA000000FFF928
:0402DB000003FFF528
:0402DC000001FFEA34
:0402DD0000043FFFDB
:0402DE000FFF00030B
:0402DF000FFC80068A
:0402E0000000BFED6E
:0402E1000FFD3FFED0
:0402E2000FFBC0004E
:0402E3000000C00651
:0402E4000FFF000206
:0402E5000FFF3FF3D5
:0402E6000FFAFFFA12
:0402E7000FFF3FFCCA
:0402E8000001FFFF13
:0402E9000FFCBFFD4A
:0402EA000FFD000AFA
:0402EB000002800B82
:0402EC000FFEBFFC46
:0402ED000FFFC0013E
:0402EE00000180018A
:0402EF0000037FF594
:0402F0000000000604
:0402F1000FFE4003B9
:0402F2000FFFBFF645
:0402F3000000BFF850
:0402F40000010008FD
:0402F5000FFD0002F7
:0402F60000020011F1
:0402F7000FFFC00134
:0402F8000FFD4003B3
:0402F9000FFE0010E4
:0402FA000FFE3FFABA
:0402FB000FFF40129F
:0402FC000FFBBFFA3B
:0402FD000000BFFA44
:0402FE000FFE3FFEB2
:0402FF000FFD4008A7
:040300000FFEC0111B
:040301000FFB80026C
:040302000FFF800960
:040303000000C0072F
:040304000FFD4000A9
:040305000FFF400D99
:040306000000C0042F
:040307000FFFC0091B
:040308000FFCBFFB2C
:040309000000BFE849
:04030A000002800964
:04030B000FFEFFFBE7
:04030C000001C00A22
:04030D000FFD800759
:04030E000004BFFD2B
:04030F000FFF7FFE5F
:040310000FFFC00219
:040311000000800860
:040312000FFE7FFC5F
:040313000FFF7FE772
:040314000FFEC00513
:0403150000010000E3
:0403160000007FF470
:040317000001BFFF23
:040318000FFF3FFF95
:040319000FFD800450
:04031A000FFBBFFE18
:04031B000FFFBFF41D
:04031C0000023FFE9E
:04031D000002800258
:04031E000FFF3FFA94
:04031F000FFF400C80
:040320000FFE000EBE
:0403210000007FFA5F
:040322000FFEC00604
:040323000FFA400C81
:040324000FFE40097F
:0403250000000009CB
:040326000FFF400580
:040327000FFE7FFD49
:040328000FFFC00CF7
:040329000FFE3FF98B
:04032A000002FFF9D5
:04032B000FF9400581
:04032C000FFDC007FA
:04032D00000040018B
:04032E000000C00605
:04032F000000800644
:040330000002BFF90F
:040331000FFDC000FC
:040332000FFF0007B2
:040333000001C00104
:040334000FFFFFF3C5
:040335000001000FB4
:04033600000140037F
:04033700000240017F
:040338000000400E73
:040339000FFCFFFCBA
:04033A000003BFFFFE
:04033B000FFE80022F
:04033C0000007FF44A
:04033D000FFF3FEC83
:04033E000001BFF605
:04033F0000020001B7
:040340000001400C6C
:0403410000000000B8
:0403420000017FF344
:040343000000400175
:040344000FFF3FF474
:040345000FFD3FFB6E
:040346000002BFF7FB
:0403470000040004AA
:040348000FFD7FFF27
:040349000000C002EE
:04034A0000047FFF2D
:04034B000004800A20
:04034C000FFF800A15
:04034D000FFB7FFC27
:04034E000002FFFBAF
:04034F000FFB3FF46D
:040350000000BFFCEE
:040351000FFDFFF4A9
:0403520000037FFD28
:040353000FFFFFF8A1
:040354000001400C58
:040355000FFEBFFADE
:0403560000013FF96A
:040357000FFCBFF3E5
:040358000003C004DA
:040359000FFFC014BE
:04035A0000013FF966
:04035B000FFDBFF8DB
:04035C000001C005D7
:04035D000FFF400747
:04035E0000017FF823
:04035F000001BFF7E3
:040360000002BFF3E5
:0403610000003FF267
:040362000FFDC001CA
:0403630000013FF75F
:040364000FFF800007
:040365000FFBBFF7D4
:040366000FFDBFFCCC
:040367000FFE3FED59
:040368000000FFF89A
:040369000FFFC003BF
:04036A000FFE7FF90A
:04036B000000FFF798
:04036C000000FFFA94
:04036D000FFB8007FB
:04036E000000800902
:04036F000002400741
:040370000003400541
:040371000FFE3FF745
:040372000FFCFFF38A
:040373000005C007BA
:040374000FFE8007F1
:040375000FFE000077
:040376000FFFBFFCBA
:040377000001000978
:0403780000008004FD
:040379000000BFFBC6
:04037A000FFCC001B3
:04037B000FFD8005ED
:04037C000FFE00066A
:04037D000FFF3FFC33
:04037E000000FFF28A
:04037F000FFE000469
:0403800000023FFF39
:0403810000007FEF0A
:040382000FFBFFFB73
:040383000FFF3FFB2E
:040384000FFC000169
:040385000FFD400226
:0403860000008003F0
:040387000001000170
:040388000000800AE7
:040389000FFF800DD5
:04038A000000BFFAB6
:04038B000001BFF9B5
:04038C000001400626
:04038D000004000761
:04038E000FFE7FFCE3
:04038F0000037FF9EF
:040390000FFD7FF4EA
:040391000000FFFD6C
:0403920000003FF632
:040393000FFB7FFAE3
:040394000002FFF76D
:040395000FFF000B4B
:040396000FFE40080E
:040397000001C00A97
:040398000FFE7FFCD9
:040399000FFCBFEAAC
:04039A000FFD8002D1
:04039B000FFFBFF39E
:04039C000001FFFF5E
:04039D000FFFBFF996
:04039E0000023FFA20
:04039F000FFEFFFD51
:0403A00000003FF921
:0403A10000028008CE
:0403A2000FFE8000CA
:0403A3000FFEC00386
:0403A40000007FFED8
:0403A50000028000D2
:0403A6000FFEFFF354
:0403A7000002000A46
:0403A8000FFF8002C1
:0403A9000FFDBFF095
:0403AA000FFCFFF154
:0403AB000FFFBFFB86
:0403AC000FFFFFFD43
:0403AD000FFF3FFB04
:0403AE000FFF8003BA
:0403AF0000007FF0DB
:0403B0000000FFFC4E
:0403B1000FFCC0017C
:0403B2000FFF000336
:0403B30000017FF5D1
:0403B40000007FFBCB
:0403B5000FFE000334
:0403B6000FFC7FF5C4
:0403B7000FFE4004F1
:0403B8000001FFFF42
:0403B9000FFF7FF1C2
:0403BA000FFFFFED45
:0403BB0000024002FA
:0403BC000FFD7FF2C0
:0403BD000FFEC0026D
:0403BE0000038011A7
:0403BF000FFB3FFBF6
:0403C0000FFD7FECC2
:0403C10000054001F2
:0403C2000FFA3FEC03
:0403C3000FFB7FF6B7
:0403C4000FFFBFF078
:0403C5000FFC3FF9F1
:0403C60000027FF6BC
:0403C7000FF9BFF07B
:0403C8000002FFEF41
:0403C90000008000B0
:0403CA000FFCBFF471
:0403CB000FFABFFC6A
:0403CC000FFF3FF9E7
:0403CD000FFDFFEF32
:0403CE000FFB3FE8FA
:0403CF0000007FE9C2
:0403D0000FFE3FEBF2
:0403D1000FFCFFEE30
:0403D2000FF6BFD88B
:0403D3000FF6BFE37F
:0403D4000FEE7FB0F9
:0403D5000FB2BED7CE
:0403D6000026409429
:0403D700000B802C6B
:0403D8000009002DEB
:0403D9000004C01943
:0403DA000005400ECC
:0403DB000005802178
:0403DC000004000712
:0403DD000004000315
:0403DE000001801981
:0403DF0000044013C3
:0403E00000037FFF98
:0403E10000024004D2
:0403E2000003800B89
:0403E30000037FFA9A
:0403E4000002C0064D
:0403E500000100040F
:0403E60000034007C9
:0403E7000FFEC00C39
:0403E8000001BFFE53
:0403E900000480028A
:0403EA00000380028A
:0403EB000003C01437
:0403EC000FFE3FFCC5
:0403ED000FFE4001BE
:0403EE0000037FFE8B
:0403EF000003BFFF49
:0403F0000003800284
:0403F10000014004C3
:0403F2000FFFBFFE3C
:0403F30000037FF58F
:0403F4000000BFF353
:0403F50000013FF7CD
:0403F6000FFC800474
:0403F7000FFF7FFE77
:0403F8000001C00B35
:0403F90000010001FE
:0403FA0000024007B6
:0403FB0000033FF7C5
:0403FC00000080007D
:0403FD0000000004F8
:0403FE000000800A71
:0403FF000000800971
:00000001FF
